:10000000008000100D1C00003D1C00003F1C000083
:10001000411C0000431C0000451C000000000000C3
:10002000000000000000000000000000471C00006D
:10003000491C0000000000004B1C00004D1C00008B
:100040004F1C00004F1C00004F1C00004F1C000004
:100050004F1C00004F1C00004F1C00004F1C0000F4
:100060004F1C00004F1C00004F1C00004F1C0000E4
:100070004F1C00004F1C00004F1C00004F1C0000D4
:100080004F1C00004F1C00004F1C00004F1C0000C4
:100090004F1C00004F1C00004F1C00004F1C0000B4
:1000A0004F1C00004F1C00004F1C00004F1C0000A4
:1000B0004F1C00004F1C00004F1C00004F1C000094
:1000C0004F1C00004F1C00004F1C000010B5054CD9
:1000D000237833B9044B13B10448AFF300800123F4
:1000E000237010BD9C01001000000000B4BA000095
:1000F000084B10B51BB108480849AFF30080084809
:10010000036803B910BD074B002BFBD0BDE81040BE
:10011000184700BF00000000B4BA0000A0010010A2
:100120009C01001000000000154B002B08BF134B72
:100130009D46A3F5803A00218B460F461348144A8A
:10014000121A04F098F80F4B002B00D098470E4B72
:10015000002B00D098470020002104000D000D481E
:10016000002802D00C48AFF3008003F0E9FF200024
:10017000290001F00FFC03F06FFB00BF0000080036
:100180000080001000000000000000009C01001032
:10019000340A00100000000000000000704710B595
:1001A000044603F0AAFA204610BD000010B504462C
:1001B000064B483003F1180240F8483C4C330260CB
:1001C000436002F04FFC204610BD00BF48B3000062
:1001D000A0F14C00FFF7EABFA0F14800FFF7E6BF2F
:1001E00010B50446054B03F1180203604C338264DA
:1001F000C364FFF7DBFF204610BD00BFE89E000090
:10020000A0F14800FFF7ECBFA0F14C00FFF7E8BFFA
:1002100010B50446FFF7E4FF204603F06EFA2046CF
:1002200010BDA0F14800F3E7A0F14C00F0E710B5D5
:100230000446FFF7BBFF204603F05FFA204610BDDF
:10024000A0F14C00F3E7A0F14800F0E710B5094C2D
:100250000949204601F04CFD20464FF07C5101F049
:10026000F7FC064802F096FD2046BDE8104000214C
:1002700001F0EEBC480400106F12033ACDCCCC3D27
:1002800010B5094C0949204601F032FD20460849C5
:1002900001F0DEFC074802F07DFD2046BDE810407D
:1002A000002101F0D5BC00BF480400106F12033AD2
:1002B000CDCC4C3FCDCCCC3D10B50A4C0A492046A4
:1002C00001F016FD204609494FF07E5401F0C0FCB4
:1002D0002146074801F0BCFC2146BDE81040054816
:1002E00001F0B6BCD00100106F12833ACDCC4C3F68
:1002F00040040010D803001038B50A4D4FF07E546A
:100300002846094901F0F4FC2146084801F0A0FC08
:100310002846074901F09CFC2146BDE838400548C5
:1003200001F096BC400400106F12833AD001001017
:10033000CDCC4C3FD803001038B50A4C4FF07E5559
:100340002046094901F0D4FC2946084801F080FC08
:100350002946074801F07CFC2046BDE838400549A5
:1003600001F076BCD80300106F12833AD001001060
:1003700040040010CDCC4C3F38B50D4604460D4925
:100380002A460D4802F0CAFB0C4800F0EAFF0B4871
:100390000021022200F0A0FE013C06492A4607483F
:1003A00002F0BCFBFFF76CFF632C01D8FFF7C4FF22
:1003B000002038BD71A20000C0030010B00400107E
:1003C00010B54FF07E542146064801F041FC21460D
:1003D000054801F03DFC2146BDE81040034801F00E
:1003E00037BC00BFD001001040040010D80300103B
:1003F00010B5104C002201232046082102F0E0FA3B
:1004000020464FF4E131483402F0D2FA0A4920463E
:1004100002F084FBFFF734FFFFF7D2FF20460749C5
:10042000074A084B02F07AFB2046BDE81040064917
:1004300002F074BB78030010409F0000809F000012
:100440008E9F00009A9F0000A39F000038B5104CBB
:100450001049626E104802F061FB1049A26E0E480E
:1004600002F05CFB0C480E4902F058FB00256319B2
:1004700009480C4993F86C20013502F04FFB102D10
:10048000F5D105480849BDE8384002F047BB00BF38
:10049000FC020010A99F0000C0030010C09F0000D4
:1004A000D69F0000EC9F00006CA2000010B504462F
:1004B0001048214600F034FDD8B90F4922460F48B4
:1004C00002F02CFB0E4800F04CFF0B490C48224672
:1004D00002F024FB0748214600F03AFD48B90949DB
:1004E000064802F01BFBBDE810400548054902F034
:1004F00015BB10BDFC020010F19F0000C0030010EE
:10050000B00400101CA0000010B52A492A4802F0CF
:1005100005FB2849294802F001FB0121284800F089
:100520000DFC2748012100F013FC50B1214922485D
:1005300002F0F4FA214800F014FF20481D4902F0AF
:10054000EDFA1F4800F03BFC04461E4922461A48BB
:1005500002F0E4FA18481C4902F0E0FA631C0ED1DC
:10056000FFF774FEFFF7A8FE144800F0FAFE1348E8
:100570000021022200F0B0FD104814490DE0FFF701
:100580007FFEFFF7B9FE0D4800F0EBFE0B4800219F
:10059000022200F0A1FD09480D49224602F0BEFAF0
:1005A0000C49064802F0BAFABDE8104004480021A0
:1005B00000F0C4BB28A00000C0030010B00400106D
:1005C000FC02001043A000004CA000005BA0000053
:1005D00072A0000085A0000010B50B4C204600F072
:1005E000C0FE20460222002100F076FD2046074989
:1005F00002F094FA0648012100F06EFBBDE81040BD
:10060000044B1868FFF780BFB004001097A00000EB
:10061000FC020010F802001010B50B4C204600F050
:10062000A0FE20460222002100F056FD2046074988
:1006300002F074FA0648012100F04EFBBDE81040BC
:10064000044B1868FFF760BFB0040010A4A00000BE
:10065000FC020010F802001010B50D4C204600F00E
:1006600080FE02222046002100F036FD2046094986
:1006700002F054FA2046084902F050FA2046074991
:1006800002F04CFABDE810400548002100F024BB00
:10069000B0040010AFA00000C8A00000E1A000005E
:1006A000FC02001008B5FFF7D7FFFFF789FEBDE891
:1006B00008400248002100F00FBB00BFFC02001000
:1006C00038B505460A4C204600F0D1FA2846FFF717
:1006D000EDFE29462046074A00F088FB204601210E
:1006E00000F0FAFABDE838400348044902F016BAAF
:1006F000FC02001079030000B0040010E1A000002B
:1007000010B5094C204600F02CFE204600210222A4
:1007100000F0E2FC2046054902F000FABDE8104076
:10072000034B1868FFF7CCBFB0040010F3A0000023
:10073000F802001010B500242146114800F008FC12
:100740000146104829B90A2200F0C6FC0D480E499E
:1007500005E000210A2200F0BFFC0A480B492246AE
:1007600002F0DCF901344FF07C5002F013FB142C42
:10077000E2D104480649BDE8104002F0CFB900BFFD
:10078000FC020010B0040010FEA000000AA100004E
:10079000E1A0000010B5084C204600F0E2FD204624
:1007A0000021022200F098FC2046044902F0B6F92C
:1007B000BDE81040FFF7BEBFB00400101BA1000051
:1007C00008B50B480B4902F041F80B480B4902F001
:1007D0003DF80B480B4902F039F80B480B4902F081
:1007E00035F8BDE808400A480A4902F02FB800BFB2
:1007F00050040010A5060000E0030010950700005B
:1008000098020010D9050000D8010010010700006F
:10081000380200101906000010B5FFF7E9FDFFF7D8
:100820001BFFFFF7CDFF074800F021FA04460649F9
:100830000648224602F072F90CB9FFF707FE0020C5
:1008400010BD00BFFC02001026A10000C003001074
:1008500010B50446034B03605433436002F002F9C1
:10086000204610BDB8A10000A0F10400FFF7F0BFC2
:1008700010B50446034B036074334360FFF7E8FF91
:10088000204610BDA0A90000A0F10400FFF7F0BFB2
:1008900010B50446FFF7DCFF204602F02EFF20468D
:1008A00010BDA0F10400F3E710B50446FFF7E0FF28
:1008B000204602F022FF204610BDA0F10400F3E71D
:1008C0007FB5424D424C002328464249424A02F03D
:1008D00047F92846414D2246414902F009FF1822B6
:1008E0002846002103F0C7FC28463E4D3E4902F051
:1008F0008BF928463D493E4A002302F031F93D4B31
:1009000028462B6003F118024C33AA64EB6422469C
:10091000002339492B6602F0EBFE384B384D00932B
:100920000C330193374B384E02932846374B3849E6
:10093000384A00F0B7FD224628463749374D02F0C5
:10094000D7FE3046364901F057FF3046354E224635
:10095000294602F0CDFE3046334901F04DFF3046C6
:10096000324E2246294602F0C3FE3046304901F09D
:1009700043FF30462F4E2246294602F0B9FE30464C
:100980002D4901F039FF30462C4E2246294602F00F
:10099000AFFE30462A4901F02FFF22462946304655
:1009A00002F0A6FE2748284901F0B2F92748284955
:1009B00001F0AEF92748284901F0AAF9274828494B
:1009C00004B0BDE8704001F0A3B900BF7803001087
:1009D000C800001002C0092003C00920B80100109F
:1009E000AD010000FC02001032C0092000C0092047
:1009F00001C00920E89E0000E101000006C00920B6
:100A0000B004001030A100005004001008C00920FC
:100A100009C0092007C0092071080000AD270000A7
:100A200010C00920D801001017C00920380200109A
:100A300011C00920980200100FC00920E003001027
:100A400018C009204804001040C00920D00100103F
:100A500043C009204004001042C00920D803001000
:100A600041C00920F0B585B0170A8DF80C20D2B22C
:100A700055233A44CEB28DF8043002F58072AA2391
:100A800004468DF80530C1F30720012332448DF868
:100A900006308DF80900C1F307431044090E8DF8A4
:100AA0000A3003448DF80B10194489B200258DF8E3
:100AB0000E10090A8DF807508DF808608DF80D703A
:100AC0008DF80F10204601F083FF0028FAD001AB0B
:100AD000595D04F14800013502F00AF80C2DF1D1FE
:100AE000002005B0F0BD00002DE9FF4100240F46B5
:100AF00016462546244B8046186831230C6000902A
:100B00001380404601F060FF0028FAD008F1480049
:100B100001F0FAFF01ABC0B2082CE05407DC054439
:100B2000032CADB203DC1DF80430834224D1013420
:100B30000C2CE6D19DF80E20EBB29A421FD19DF805
:100B40000F30B3EB152F1AD19DF80B209DF80A300A
:100B5000002043EA02239DF8092042EA03229DF87F
:100B6000083043EA02233B609DF80D209DF80C30CD
:100B700043EA0223338004E04FF0FF3001E06FF0DE
:100B8000010004B0BDE8F08134A100002DE9F3417B
:100B900000240E46174625461A4B804618680190D9
:100BA000BC4217D0404601F00FFF0028FAD008F1F0
:100BB000480001F0A9FFBB1E9C42C0B23CBF2D18EB
:100BC000ADB2032C305503DC01AB1B5D834210D169
:100BD0000134E5E7344414F8022CEBB29A420BD10D
:100BE00014F8013CB3EB152F14BF6FF00100002087
:100BF00004E04FF0FF3001E06FF0010002B0BDE80B
:100C0000F08100BF38A10000F8B50F461446116806
:100C10003A4606461D46FFF725FF58B92060214693
:100C200030462A46FFF760FF20B131232B804FF476
:100C3000704323602B88312B04BF23683366F8BDD3
:100C400010B50446204601F0BFFE20B104F1480073
:100C500001F05AFFF6E710BD10B504464FF41651E7
:100C600001F0A6FE2046FFF7EBFF002010BD30B5D7
:100C700000238BB0012504460195ADF80230FFF743
:100C8000EBFF10B14FF0FF3024E02046294601AAC7
:100C90000DF10203FFF7B8FF0028F3D1BDF80230D1
:100CA000302BEFD1204602A91E22FFF76FFF88B933
:100CB000039805AA606604986C3444F8040C09ADE6
:100CC000134603CBAB42206061601A4604F108046E
:100CD000F6D100200BB030BD07B5002301F00101B3
:100CE0000191ADF80230122101AA0DF10203FFF7C4
:100CF0008BFF30B9BDF80200303818BF4FF0FF301D
:100D000001E04FF0FF3003B05DF804FB13B50024A1
:100D1000262101AA0DF102030194ADF80240FFF76C
:100D200073FF40B9BDF80230302B05D10198B0FAFD
:100D300080F0400900E0204602B010BD38B50546FD
:100D40000C462846FFF7E2FFA042FAD1002038BD4A
:100D500007B500230191ADF80230602101AA0DF121
:100D60000203FFF751FF30B9BDF80200303818BF59
:100D70004FF0FF3001E04FF0FF3003B05DF804FBAF
:100D800007B5002302290193ADF8023004D00329EE
:100D90000CBF2521232100E0242101AA0DF102032B
:100DA000FFF732FF30B9BDF80200303818BF4FF0FE
:100DB000FF3001E04FF0FF3003B05DF804FB07B5F2
:100DC00000230193ADF80230512101AA0DF1020375
:100DD000FFF71AFF28B9BDF80230302B01D1019876
:100DE00001E04FF0FF3003B05DF804FBF7B50023DE
:100DF0000F460121044615460193ADF80230FFF776
:100E00006BFF01203F49A84708B13F4E76E002AA98
:100E100042F8047D204622210DF10203FFF7F4FE83
:100E2000064600286AD1BDF80230302B64D137491C
:100E3000A84701460028E8D12046FFF77FFF0A2097
:100E40003349A8470028E0D101212046FFF776FF6B
:100E500020460121FFF77CFF0028F0D12B49A8474D
:100E60000028D2D101212046FFF78AFF0146002841
:100E7000C7D12046FFF762FF14202649A847002863
:100E8000C3D101212046FFF759FF20460121FFF77A
:100E90005FFF0028F0D11D49A8470028B5D10221E5
:100EA0002046FFF76DFF01460028AAD12046FFF734
:100EB00045FF1E201849A8470028A6D10121204639
:100EC000FFF73CFF20460121FFF742FF0028F0D149
:100ED0000E49A847002898D120460321FFF750FF6C
:100EE000064600288DD131462046FFF727FF6420B3
:100EF0000A49A84710B188E76FF06306304603B08F
:100F0000F0BD00BF3CA10000F1D8FFFF4CA00000E5
:100F100049A1000067A1000085A10000A3A1000075
:100F200007B500230191ADF80230212101AA0DF18E
:100F30000203FFF769FE30B9BDF80200303818BF70
:100F40004FF0FF3001E04FF0FF3003B05DF804FBDD
:100F500007B500230191ADF80230402101AA0DF13F
:100F60000203FFF751FE30B9BDF80200303818BF58
:100F70004FF0FF3001E04FF0FF3003B05DF804FBAD
:100F80000A2970B5036804460E460CD1458B002231
:100F90000135ADB21B6B02834583984785421BDB4D
:100FA0000023638318E0DD6A018B428B3346A84738
:100FB000258B23680135ADB225835B6B20469847AE
:100FC000854209DB658B0023238301352368ADB29D
:100FD00065831B6B2046E0E7304670BD018342838A
:100FE00070474FF0FF30704781837047C18370476F
:100FF0000368002170B51B6C0A460446984700261A
:10100000236820465B6B9847236805461B6B204688
:1010100098476843864205DA2046202101F068FDA2
:101020000136EDE770BD000038B5046A05460A4692
:101030003CB90E4B0E481B68D96802F0F9FE2046F9
:1010400038BD20460B4902F0A5FF68B1074B284682
:101050001B689C682B685B6B984700210346012244
:10106000204604F007FC012038BD00BF50010010ED
:1010700018A200006EA2000038B504460D4601F02B
:1010800015FD0B4B2360543363600023638323837C
:101090000DB925620AE0284604F059FD023002F03D
:1010A0000BFB044920622A4604F0B4FC204638BDFC
:1010B000B8A1000070A20000D0F8943033F0020311
:1010C0000CBF202080207047D0F8943033F002030A
:1010D0000CBF802020207047C0F89810C0F89C20DA
:1010E000704710B5044603681B6D9847D4F88C30E0
:1010F0005B7890FBF3F010BD10B5044603685B6DA0
:101100009847D4F88C309B7890FBF3F010BD802981
:1011100010B526D8202A24D8D0F890409CB9D410F5
:1011200001EBC41102F00702084433B901239340D4
:1011300090F8A02022EA030311E00123934090F8E5
:10114000A02013430BE0012B0BD1D41001EBC411F1
:1011500002F007020844934090F8A020534080F822
:10116000A03010BD2DE9F04F1E461F3B602B85B00F
:101170000446884693465CD8D0F88C3093F80190AA
:101180001D7893F802A0DB780093D0F8983009EB33
:10119000030703681B6D9847874215D9D4F89C70E4
:1011A000236800225744C4F8982001925B6DC4F86C
:1011B0009C7020469847D4F88C30019A9B78C01ACE
:1011C000874228BFC4F89C20A6F120036B43D4F8C3
:1011D0008C200433D118D35C01910293002555452E
:1011E00021D2464605F00703012202FA03F30393D6
:1011F000019BC5F3C4071F44C8EB06034B4510D23F
:101200007B78039A21681340D1F84CC018BF0123A2
:10121000314605EB0B022046E047009B01361F4498
:10122000EAE70135DBE7D4F89830029A1344C4F8B2
:10123000983005B0BDE8F08F38B504460D46182249
:10124000002103F018F82046294601F0DDFC204675
:1012500038BD10B50446C36E026E30301A60826C21
:10126000436D1A6001F06AFBD4F88030A26F1A60F7
:1012700010BD10B50446836E026E30301A60826C69
:10128000436D1A6001F05AFBD4F88030A26F1A60E7
:1012900010BD70B504460021FFF7DBFF204610218A
:1012A000FFF7D7FF2046B021FFF7D3FFA36E226ED2
:1012B00004F19F061A6004F21F1516F8011F20465C
:1012C000FFF7D7FFAE42F8D120460021FFF7C1FF5C
:1012D00020461021FFF7BDFF2046B121FFF7B9FFDF
:1012E000A36E226E04F29F161A6015F8011F2046A5
:1012F000FFF7BFFFB542F8D120460021FFF7A9FF55
:1013000020461021FFF7A5FF2046B221FFF7A1FFDD
:10131000A36E226E04F21F251A6016F8011F2046E4
:10132000FFF7A7FFAE42F8D120460021FFF791FF5B
:1013300020461021FFF78DFF2046B321FFF789FFDC
:10134000A36E226E04F29F261A60A26FD4F8843036
:101350001A6015F8011F2046FFF78BFFB542F8D140
:1013600070BD10B504460021A0304FF4007202F0A9
:1013700082FF2046BDE81040FFF78BBF0A29F8B571
:10138000026804460E4615D1D0F88C300027C0F80C
:1013900098709D78D0F89C301D44C0F89C50536DD7
:1013A0009847D4F88C309B78C01A85420FD3C4F884
:1013B0009C700CE0D56A3346D0F89810D0F89C2089
:1013C000A847D4F8A43213B12046FFF762FF304695
:1013D000F8BD000038B5044600F130050322284668
:1013E000082101F097FA2D49284601F09FFAE36E93
:1013F000226E32201A60A26FD4F880301A60A26C7C
:10140000636D1A6001F0BAFC236DA26C05201A60AE
:1014100001F0CCFC2046AE21FFF71BFF2046A221A5
:10142000FFF717FF2046A021FFF713FF2046C82132
:10143000FFF70FFF20462221FFF70BFF20462F2149
:10144000FFF707FF20464021FFF703FF2046AF21AB
:10145000FFF7FFFE20468121FFF7FBFE2046172104
:10146000FFF7F7FE2046A621FFF7F3FE00214FF419
:10147000007204F1A00002F0FEFE2046FFF709FF13
:101480000123C4F8A432236800211B6C20460A46BD
:101490009847034BC4F88C3038BD00BF002D310194
:1014A00074A20000F7B5044616460F461D460A9979
:1014B00000F0E2F8154B394603F1080222607C3354
:1014C0004FF0FF320092636004F13000334601F0C8
:1014D000E3F9294604F14400FFF7AEFE089904F150
:1014E0005C00FFF7A9FE099904F17400FFF7A4FE60
:1014F0000123C4F8943000232046C4F89030C4F887
:101500009830FFF767FF204603B0F0BD98A90000B0
:1015100073B5074C1F3B0668082504EBC303019312
:101520000095B46EC900D2002B46A04702B070BD32
:1015300020AA000030B5013B8DB21944039B94B240
:10154000013B1A448584C484058541858485C28510
:1015500030BDF7B5089C076800941D46BF6D064670
:10156000B8476C430025A54206DA33683046DB6D88
:10157000099998470135F6E703B0F0BD036873B5E4
:1015800004461D6E1B6D9847236806465B6D20461A
:101590009847E38B00210090019320460A4633468A
:1015A000A84702B070BD2DE9F3419846089C056834
:1015B000009404FB08F4AD6D0746099EA84700257A
:1015C000A54207DA3B6856F82510DB6D3846984788
:1015D0000135F5E702B0BDE8F081F7B5089C1F467C
:1015E000009406680546B66DB04767430024BC42C8
:1015F0000FDA099AE310D35C04F0070293401B064C
:101600002B684CBFA98BE98BDB6D284698470134CA
:10161000EDE703B0F0BD08B503681B6D98470823DC
:1016200090FBF3F008BD08B503685B6D984708238D
:1016300090FBF3F008BD38B5044602680B46D56C44
:10164000B0F92410B0F92620A847A38CB4F92A20B9
:1016500001339BB2A3841BB29A420CDA238DB4F9F6
:101660002E20A384E38C01339BB2E3841BB29A4205
:10167000BCBFA38DE38438BD10B50446FFF7FCFC66
:10168000084B204603F108027C33226063604FF66A
:10169000FF71FFF7A9FC20460021FFF7A7FC2046B9
:1016A00010BD00BF28AD0000036870B51B690021A4
:1016B000012204469847431C05460ED02368204665
:1016C0001B690021022298472368064629461B69A8
:1016D000204600229847304670BD70BD084A094B2D
:1016E00010B4026003F58071002453F8042B824289
:1016F00008BF43F8044C8B42F7D15DF8044B7047A8
:10170000D0AD0000580700100A4A0B4B10B503F586
:10171000807104460260002053F8042B944208BFF5
:1017200043F8040C8B42F7D1204601F0E6FF204637
:1017300010BD00BFD0AD000058070010024803499B
:10174000034A00F0FDBE00BF280A001002C00920B5
:1017500003C00920F0B50E4685B03549054604F0B2
:10176000ECF920B9334B1B6863B105B0F0BD2846D6
:10177000314904F0E2F978B92E4B1B6843B10120DE
:1017800005B0F0BD0190FFF7D9FF019805B0F0BD9D
:10179000FFF7D4FF0120E8E72846284904F0CDF9F7
:1017A00010B3274B002402E00134402C21D053F821
:1017B000040F0028F8D12B783A2B32D0294602A802
:1017C00000F09CFF02A800F0EBFF90B102A800F02F
:1017D000CFFF88B102A800F0D5FF03464BB1194AEC
:1017E000E01C42F82430C0E7124B1B68ABB102206A
:1017F000BBE74FF0FF30B8E702A800F0ADFF0546A9
:101800000028F6D0036802A89F6800F0A3FF3246C4
:1018100001462846B8470346E0E7FFF78FFF02205E
:10182000A3E72846084902AA04F018F9029BD5E765
:10183000B0AD00005C080010C0AD0000B8AD000005
:101840005407001058070010F8AD0000022808B532
:101850000BDD084BC21E53F82200002143F8221072
:1018600028B103685B68984708BD002008BD4FF0A9
:10187000FF3008BD58070010022870B50C46164608
:101880000FDC0E4B1B680BB9FFF758FFA51936B1DB
:1018900014F8011B0A4800F0A3FDAC42F8D1304611
:1018A00070BD084B033853F8200018B103681B685B
:1018B000984770BD4FF0FF3070BD00BF5C0800104E
:1018C000280A001058070010022810B50C4609DC41
:1018D0000D4B1B688BB10D4800F026FD01232070D5
:1018E000184610BD0A4B033853F8200040B1036876
:1018F0009B6898470346184610BDFFF71FFFEAE7AD
:101900004FF0FF33ECE700BF5C080010280A00101E
:1019100058070010022808B508DD074B033853F8B4
:10192000200028B10368DB68984708BD012008BD86
:101930004FF0FF3008BD00BF58070010022808B55F
:1019400008DD074B033853F8200028B103681B69F2
:10195000984708BD002008BD4FF0FF3008BD00BF0C
:1019600058070010022808B504D84FF400534B6004
:10197000002008BD01F06AFF092303604FF0FF302B
:1019800008BD00BF08B5012001F066FF704700BF29
:10199000704700BF08B5FFF7FBFFFFF7F7FFBDE893
:1019A0000840FEF739BF00BF074A13681844EFF339
:1019B0000881884202D2106018467047034B0C22FF
:1019C0001A604FF0FF307047CC000010300A001052
:1019D0000A4C08B523680546986802F059F8236850
:1019E000D86802F055F801F0FBF820B905B9FEE718
:1019F00000F068F8FBE701F0ADF9F7E750010010DF
:101A0000002103F02EBF00BF02F080B82B4A202334
:101A100070B4C2F8A031D2F8A031980645D4274B53
:101A2000022100250124AA2055220B26C3F8041107
:101A3000C3F8A8511946C3F8AC51C3F80C41C3F818
:101A40008460C3F88C00C3F88C20C3F88040C3F8CE
:101A50008C00C3F88C20D1F88830184A5B01FAD585
:101A60000321AA205523C2F88010C2F88C00114629
:101A7000C2F88C30D1F88830104A13F0407FF9D08A
:101A80000F4900230520C2F80801C2F8C410C2F8AB
:101A9000C831136870BC23F4704323F03A0343F455
:101AA000405343F03A0313607047D2F8A03159060F
:101AB000B5D4D2F8A0315906F7D5B0E700C00F4031
:101AC000DE87280400B599B072B63B49684601F03C
:101AD0009BF806A8394901F097F80CA8384901F09D
:101AE00093F812A8374901F08FF832E00699039B6A
:101AF000019A01311A6059D00C990A9B079A013159
:101B00001A604DD01299109B0D9A01311A6041D084
:101B1000159B139A96201A6001F048F9009B013337
:101B200032D00699049B019A01311A6026D00C9993
:101B3000099B079A01311A601AD012990F9B0D9ACE
:101B400001311A600ED0169B139A96201A6001F08C
:101B50002DF9009B0133C9D11B481C49242201F0F7
:101B600017F8C3E718481949242201F011F8EAE7E9
:101B700015481649242201F00BF8DEE712481349F4
:101B8000242201F005F8D2E70F481049242200F082
:101B9000FFFFC6E70C480D49242200F0F9FFB7E724
:101BA00009480A49242200F0F3FFABE70648074939
:101BB000242200F0EDFF9FE732C0092034C0092045
:101BC00035C0092037C0092008AE000020AE000053
:101BD0000C4A30B4936894681A46B4F1805F0CD212
:101BE000094A03F1C40553F8044BAB4242F8044FD1
:101BF000F9D1044B4FF080529A60103042F8201017
:101C000030BC704700ED00E0FCFFFF0F0649074ABB
:101C1000074B9A42BEBF51F8040B42F8040BF8E799
:101C20000448804704480047E8BA0000C800001094
:101C30009C0100100D1A000029010000FEE7FEE7DC
:101C4000FEE7FEE7FEE7FEE7FEE7FEE7FEE7FEE76C
:101C500070B50C4605460021204608F0B7F800BBD9
:101C600020464FF07E5108F0CFF808B14FF07E5477
:101C70000D4EB06907F0B4FE214607F009FF08F0E9
:101C8000F3F8B269034682422A7908BF431C012057
:101C900090402968044A0B60116D40EA0103136506
:101CA00070BD0024E4E700BF008001400E4A10B47C
:101CB00014680E4B04FB01F102225A6099619A6983
:101CC0003AB1026810689B6900FB01F1B1FBF3F1C6
:101CD0001160064B0922196D5DF8044B41F00101BA
:101CE00019655A60704700BF580800100080014015
:101CF00010B504460846054907F0CAFE08F08EF8FC
:101D000001462046BDE81040FFF7D0BF00247449CB
:101D1000F8B50E4605462B49304601F001F8C4B22D
:101D2000FF2C48D004F1080301209840264B274A95
:101D3000D3F8C41052F8242041F040012C712A60DD
:101D4000C3F8C410D3F8A871214C27F440570021E0
:101D50000222C3F8A871E1606261E16C1D4B40EAA8
:101D60000102E26419681C4A1C4BA2FB01022846CE
:101D7000120D44F620611A60FFF798FFA06907F082
:101D80002FFE002107F084FE08F06EF8A2690124FE
:101D900090422A79296804FA02F408BF01300C4AFB
:101DA0000860116D304644EA010313650549BDE83A
:101DB000F84000F075BF0A480A493C2200F0E8FEEE
:101DC000B0E700BF88AE000000C00F40D400001094
:101DD00000800140D000001083DE1B435808001033
:101DE0003CAF000050AF000008B5154A9368C3F33C
:101DF0004203012B1ED0022B19D1124B596F013116
:101E00000AD0D3F88010986F086093F8A61019B91B
:101E1000516821F001015160186F0A4B48B193F8E5
:101E2000A6302BB10021084A1368984708BD08BDA9
:101E300008BD08BD034A106F0028F9D01946F2E723
:101E400000800940640800106008001070B5036845
:101E5000294CA34249D041DD284CA3422AD004F5A5
:101E60008044A34244D1264C08263ABB01290BD01A
:101E70004568244AC5EBC50502EBC50494F8355006
:101E800094F83620EA4214D1012202FA01F5D1F188
:101E9000010138BF002102FA01F15C6824EA05045F
:101EA0005C6003685B68194203D1B240164BC3F80B
:101EB000802070BD154C0726002AD7D0012505FAD1
:101EC00001F176B2304605FA06F65A680A435A60BE
:101ED0002146FFF77DFE0C4B1E6070BDA4F58044CB
:101EE000A34205D10A4C0526BFE70A4C0626BCE7EB
:101EF00000242646B9E700BF0000014000800940E9
:101F00007D1F00006408001000E100E0E91D0000F2
:101F1000191F0000E91F000008B5154A9368C3F3B4
:101F20004203012B1DD0022B18D1124B59680131ED
:101F300009D019699868086093F8361019B9516882
:101F400021F00101516018680A4B48B193F836300E
:101F50002BB10021084A1368984708BD08BD08BD89
:101F600008BD044A10680028F9D01946F2E700BFFE
:101F700000C00040640800106008001008B5174A4F
:101F80009368C3F34203012B21D0022B1CD1144BC5
:101F9000D3F8AC1001310BD0D3F8B810D3F8B0009F
:101FA000086093F8DE1019B9516821F00101516001
:101FB000D3F8A8000A4B48B193F8DE302BB10021CA
:101FC000084A1368984708BD08BD08BD08BD044A03
:101FD000D2F8A8000028F8D01946F1E700C009405F
:101FE000640800106008001008B5154A9368C3F330
:101FF0004203012B1DD0022B18D1124BD96B01319A
:1020000009D0996C186C086093F86E1019B9516872
:1020100021F001015160986B0A4B48B193F86E3082
:102020002BB10021084A1368984708BD08BD08BDB8
:1020300008BD044A906B0028F9D01946F2E700BFAA
:102040000000014064080010600800102DE9F04F06
:102050000368884A8DB0934209908B4600F3F08064
:10206000854A934200F0F78040F3D780834A934239
:1020700000F09F8002F5804293420CD1804AD2F852
:10208000AC1121F44021C2F8AC11D2F8AC1141F4EA
:102090008021C2F8AC117B494FEA0B120968089104
:1020A000089CB1FBF2F102FB114289B20491002AB3
:1020B00000F0B1806100A2000123029400240B9182
:1020C0000A9201930F4603920693CDF81CB05E4628
:1020D0000594DDF81CA001994FF00008D146CDB25F
:1020E000DA46C346002F79DB0399DDF804E0B1FB43
:1020F000F9F464090134C4F34F04DE44002C66D1C2
:102100000124B8F1000F67D104FB0EF0029AC00061
:10211000B2FBF0F00130CAEB500001F084FBB0429A
:1021200006DA504564D00646CDF81480049406952E
:102130000BF1010B5FFA8BF84545D144D2D8019CD5
:10214000D3460F2C4FF000035DD0029A0899019CF2
:102150000A440B99013402920194039A0F440A9C99
:1021600007992244594403920791002BB1D0069B52
:10217000059A099C42EA03102368C0B2197B049CAB
:1021800041F08001C4F30722099C19732368049964
:102190001A7123685FFA81FB83F800B0236883F823
:1021A000280023681A7B02F07F021A730DB0BDE885
:1021B000F08F334AD2F8AC1121F44031C2F8AC119F
:1021C000D2F8AC1141F48031C2F8AC1163E7B8F138
:1021D000000F99D0012C97D8022495E7B7FBF9F4AA
:1021E0002409DDF804E00134C4F34F04DE4485E73C
:1021F0000494019CD3460F2C0695CDF814805646C6
:102200004FF00103A1D10599069A099C41EA0210F9
:10221000C0B22368B2E71020B0E7A2F58042934233
:102220007FF439AF164AD2F8A81121F0C001C2F8E4
:10223000A811D2F8A81141F04001C2F8A8112AE76C
:102240009B221148114900F0A3FC099C0A4A23680B
:1022500093427FF409AF0A4AD2F8A81121F44071E1
:10226000C2F8A811D2F8A81141F48071C2F8A811DF
:1022700011E700BF00C00940000001400080094094
:1022800000C00F40D000001058B0000074B0000033
:10229000F8B55D1E012D07460C46164604D91548B3
:1022A0001549FB2200F074FC053C032C1CD8042EBD
:1022B00014D8013EF6B2032E0DD8104B082253F865
:1022C00026301B01DBB244EA8504144323433A68F9
:1022D000DBB21373F8BD00231A46F4E70848064939
:1022E000FE2200F055FCE4E706480349FC2200F01A
:1022F0004FFCDCE7DCB0000074B00000DCAF000095
:1023000028B1000004B10000436810B40448054C33
:10231000C3EBC30344F8332001605DF8044B7047FE
:10232000600800106408001000B50268137DDB0728
:10233000FCD543680949C3EBC30301EBC3035968E8
:1023400010780131C0B207D0596904335B680B6063
:10235000536843F0010353605DF804FB6408001008
:102360000368187D00F00100704700BF38B543686E
:10237000184AC3EBC303DB00D1180446C869013017
:1023800011D018331A445368151D013316D06A69E9
:102390006B6812681A4204D12368187DC0F380105C
:1023A00038BD002038BD23681B7D9B060CD491F8F6
:1023B00034000F288CBF0020012038BD0648074993
:1023C0002C2200F0E5FBE2E7002381F83430012005
:1023D00038BD00BF6408001008AE0000ACB10000BA
:1023E00038B504460D462046FFF7C0FF0028FAD056
:1023F0002368EDB21D706268054BC2EBC20203EBAD
:10240000C20393F83420013283F8342038BD00BF72
:10241000640800102DE9F04F0446454D006883B074
:10242000A8420E469046994643D065680023019322
:102430002A46DFF808A1EF00C2EBC202781B4FF07A
:10244000000E0AEBC0000AEBC20C4FF0FF33C36171
:1024500043607146724620468CF835E0FFF7F6FC83
:1024600016B903B0BDE8F08F3249404600F04AFC8F
:1024700031498346484600F045FCB21E012A38D94E
:10248000012EEED1B8F1FF3FEBD029492268072099
:102490008B45107215D1019B9BB11B7C019A25497C
:1024A00043F040034046137403B0BDE8F04F00F022
:1024B000F7BB037C656803F03F0303746268019017
:1024C000B7E77D1B0AEBC50041460430002200F04F
:1024D000BDFB62680125C2EBC2020AEBC2032046C3
:1024E0002A46002183F8355003B0BDE8F04FFFF7CE
:1024F000ADBCB9F1FF3F09D00D4A90420CD0781B1A
:102500000AEBC00049461C3000F06CFB032EA8D13A
:10251000B8F1FF3FB9D1A4E7019B002BEFD01A7CA3
:10252000484642F080021A74034900F0B9FBEDE717
:1025300000000140B8AF000094B200006408001031
:102540002DE9F0470F46054608466149164600F05A
:10255000E7FB60490446304600F0E2FB01462046B6
:1025600000F0BEFB411C044600F0AB805A4B2860D3
:10257000984200F0838053D9584B984276D003F5A7
:102580008043984206D1564BD3F8C42042F00072E3
:10259000C3F8C4204FF0010984F808902B684FF06D
:1025A0000008C3F8048028464FF41651FFF74EFD8B
:1025B00042464B4628460821FFF76AFE3846444902
:1025C00000F06EFB3046434900F06AFB7A1C03D0F2
:1025D0003846414600F0A6FD731C03D0304600216A
:1025E00000F0A0FD3C4B9C4250D025D93B4B9C4277
:1025F00064D003F580439C424BD103236B6039497F
:10260000C3EBC3034FF0FF34284601EBC30522465A
:1026100023466C60EC610021BDE8F047FFF7FABE8D
:10262000A3F580439842B5D12D4BD3F8C42042F096
:102630000802C3F8C420ADE7A3F580439C4228D12B
:10264000284E4FF0FF340021696022462346284679
:102650007460F461FFF7DEFE234B012429461C6001
:1026600022480822BDE8F04701F0FABD1C4BD3F820
:10267000C42042F08072C3F8C4208BE7184BD3F813
:10268000C42042F01002C3F8C42083E701236B602A
:10269000B5E76B681349C3EBC3034FF0FF3601EB9B
:1026A000C30732463346284600217E60FE61FFF7AD
:1026B000B1FE0F4B9C42CFD0BDE8F08702236B6088
:1026C0009DE70C480C495C2200F062FA2C6061E73F
:1026D00028B20000ECAF000000000140008009407B
:1026E00000C00F40640800105C080010280A0010A9
:1026F00000C0004018B2000074B0000038B50023DC
:10270000036043600A7804462F2A01D0204638BD72
:102710004A78002AFAD0481C20604A782F2A14D020
:10272000B2B18D1C194600E052B125602A782B46C3
:102730002F2A01F1010105F10105F5D101332360D3
:1027400000F01CFF6060204638BD19460346F5E7DF
:102750001146F5E70068704710B50446406828B197
:1027600000F02AFF012801D1606810BD002010BDD3
:10277000406808B528B100F01FFFD0F1010038BF54
:10278000002008BD10B50446406830B100F014FFC9
:1027900018B9606808B1043810BD002010BD00BF32
:1027A0004068003018BF0120704700BF10B5044AD0
:1027B000044640F81C2B00F019FC204610BD00BF59
:1027C000C0B2000010B5054B044640F81C3B00F0B9
:1027D0000DFC204600F091FF204610BDC0B2000065
:1027E000012905D0022902D1443000F035BF7047DD
:1027F000283000F031BF00BF124B70B500250446F1
:1028000080E828000E468560C560056145618561E8
:10281000C561056245622946283000F013FF29464C
:1028200004F1440000F00EFF31462346064A04F14D
:102830001C0000F0A3FB201D314600F0D3F9204618
:1028400070BD00BFC0B20000E127000010B50A460D
:10285000044651B1283000F0FBFE012104F11C00B8
:102860000A46BDE8104000F0C9BB1C300121BDE89C
:10287000104000F0C3BB00BF014B0360704700BFB6
:10288000D0B2000010B5034B0446036000F035FFE2
:10289000204610BDD0B20000F0B5DFF848C00446B5
:1028A0000F4883B04FF0080E251D00264FF0FF376C
:1028B000C4F800C0C4F808E0206166602846E660FD
:1028C000009700F065FD28463346A168E26800F0F5
:1028D000BFFC2846216900F0F3FC204603B0F0BDA0
:1028E00040420F00D0B2000070B5094D04462B687D
:1028F00083420BD0061D3046A168E268002300F039
:10290000A7FC3046216900F0DBFC2C6070BD00BFE5
:102910004409001010B4044C002323608160C2609D
:102920005DF8044BFFF7E0BF44090010024B0022A2
:1029300001611A60FFF7D8BF4409001038B50C4692
:102940000546FFF7D1FF281D2146BDE8384000F0BD
:10295000C1BD00BFC1EBC10100EB81000C3000F034
:102960007BBE00BFF8B5104B0025044680E8280068
:102970000E46856029460C30174600F063FE294656
:1029800004F1280000F05EFE251D4FF41653314679
:102990003A4663642846FFF7D3FD2846224603499A
:1029A000FFF7B2FC2046F8BDE8B200005529000050
:1029B00038B504460D460430FFF748FB656438BD62
:1029C0000430FFF765BC00BF0430FFF7C9BC00BF8F
:1029D0000430FFF7CBBC00BF0430FFF7A5BC00BF3D
:1029E00010B504300C46FFF7FBFC204610BD00BFBD
:1029F00000207047F8B58E18B1420F4605460FD03B
:102A00000C4601E0A64209D02B6828465B6A14F800
:102A1000011B98470130F5D1E01BF8BDF01BF8BD54
:102A20000020F8BDF8B58E18B1420F4605460FD00C
:102A30000C4603E004F8010BA64207D02B68284699
:102A40009B6A9847431CF5D1E01BF8BDF01BF8BD0D
:102A50000020F8BD0020704700207047002070471C
:102A60000020704710B5074B044603F108023C33C1
:102A700080E80C00406900F055FF204600F09EFD04
:102A8000204610BDF0B20000A0F10400FFF7EABF3D
:102A900010B50446FFF7E6FF204600F02EFE204664
:102AA00010BD00BFA0F10400FFF7F2BF10B584B065
:102AB000044600F0B3FD0B4B002203F108013C3348
:102AC00084E80A00626101A82246074902F0A2FFD9
:102AD000064901A801F00EF96061FEF791FF20465A
:102AE00004B010BDF0B20000F8AD000038B3000033
:102AF00038B50D460446406900F0CAFF28466169B2
:102B0000BDE8384001F036B910B50446406900F020
:102B1000BFFF6069BDE81040FEF776BF0EB430B568
:102B200082B005AB53F8045B04464069019300F0A2
:102B3000AFFF29466069019A01F070FD02B0BDE85F
:102B4000304003B0704700BFFFF746BFA0F1480018
:102B5000FFF7FABFFFF744BFA0F14800FFF7FABF45
:102B600038B504461D46FFF7FDFE294604F148002E
:102B7000FFF79CFF054B204603F1080103F12002FB
:102B800054332160A264E36438BD00BF40B3000049
:102B900010B5084B0446186882B00B46C068064959
:102BA0000092224601F0B0F802B0BDE81040FEF7F6
:102BB00089BF00BF50010010A0B300000FB400B5E2
:102BC000064A83B004AB126853F8041BD0681A4657
:102BD000019301F023FD012000F03EFE50010010A2
:102BE00000F0C4B838B50D46044600F0FDF80135D4
:102BF00009D02046002100F013F920460321BDE84A
:102C0000384000F009B938BD38B50D46044600F02B
:102C1000EBF801350FD0236801330DD023696268CA
:102C200020461A60012100F0FBF820460221BDE891
:102C3000384000F0F1B838BD024803492422FFF7BC
:102C4000A7FFEBE708AE000020AE000070B50D4610
:102C50001646044600F0C8F8013514D02368013345
:102C600012D066B9236962681A602046012100F01B
:102C7000D7F820460221BDE8704000F0CDB8E368E7
:102C800062681A60F1E770BD034804492422FFF727
:102C90007FFF002EE6D0F2E708AE000020AE000075
:102CA000431C10B5044618D00B68581C04D10FE023
:102CB00051F80C3F5A1C0BD09C42F9D12046896830
:102CC00000F008FA20460221BDE8104000F02ABAC0
:102CD0000248BDE81040FFF771BF10BDD4B300003B
:102CE000884208B50AD0431C07D0013106D00448F9
:102CF000FFF764FF4FF0FF3008BD084608BD00BF76
:102D0000E8B300000B685A1C04D107E051F80C3FEF
:102D10005A1C03D08342F9D148687047184670475F
:102D200008B5431C0CD00B685A1C04D109E051F8BB
:102D30000C3F5A1C05D09842F9D14868411C00D07C
:102D400008BD0348FFF73AFF4FF0FF30F8E700BF38
:102D5000FCB3000030B585B018246D4620462946E6
:102D6000ABBE0446204605B030BD00BF024B18681C
:102D700000F00100704700BFF0ED00E038B50546F7
:102D800000F040FA044600F03DFA001BA842FAD3D6
:102D900038BD00BF08B5044906F07AFE07F03EF8DA
:102DA000BDE80840FFF7EABF002474494FF47A7386
:102DB00003FB00F0FFF7E2BF431C10B5044608D048
:102DC0002046002100F086F904F01F040120A040F5
:102DD00010BD034803491522FFF7DAFEF0E700BFF4
:102DE0003CB4000050B4000038B504464B1C0D46FE
:102DF00021600FD00846FFF7DFFF25F01F0505F122
:102E0000180105F11C0205F114036060A560E16082
:102E10002261636138BD00BF006800F083B900BF64
:102E200038B50368044601330D4610D045B1012D75
:102E300005D1A368626819680A431A6038BD38BDB5
:102E4000A36861681A6822EA01021A6038BD034863
:102E500003492C22FFF79CFEE8E700BF08AE000004
:102E600050B400002DE9F04F414B83B05F689E687D
:102E70005D6A9C6A0FB3DFF800913E4A9B464FF0B3
:102E8000010A05E00AFA08F3FF1ACBF80C3014D057
:102E9000B7FA87F8C8F11F085FFA88F859F82800D0
:102EA0000028EFD013680121019298470AFA08F32D
:102EB000FF1A019ACBF80C30EAD1D6B1DFF8B890FE
:102EC000DFF8B0A0DFF8A88005E00123BB40F61AC8
:102ED000C8F80C300DD0B6FA86F7C7F11F07FFB25D
:102EE00059F827000028F0D0DAF80030022198477E
:102EF000EBE7E5B1DFF88080DFF878901C4F04E065
:102F00000123B340ED1AFB6211D0B5FA85F6C6F184
:102F10001F06F6B20F2EF3D806F1200358F823004F
:102F20000028EDD0D9F8003001219847E8E7DCB15E
:102F3000114FDFF840800E4E04E00123AB40E41A4D
:102F4000F36211D0B4FA84F5C5F11F05EDB20F2D6F
:102F5000F3D805F1200357F823000028EDD0D8F866
:102F6000003002219847E8E703B0BDE8F08F00BFCA
:102F700080800240480900104C090010F8B51E4638
:102F80004B1C044623D0134B21F01F0001F01F05FA
:102F9000114F21F05F0199423A6084E8210004D08A
:102FA0000E48FFF70BFE94E821000A4B0C499842AB
:102FB00018BF20350B4BA560152043F82560FEF7A0
:102FC00007FE094B4FF400121A600020F8BD0846B6
:102FD000F8BD00BF00C0092048090010B8B40000C7
:102FE000652E00004C09001000E100E08268024BF1
:102FF000002143F8221070474C09001030B40368D8
:10300000314CA34232D0314DAB4212D001293ED0D7
:10301000A34220D0AB420AD14368012101FA03F355
:10302000002A41D12A4A516B21EA0303536330BC81
:1030300070474368012404FA03F3254C0129E36235
:10304000EED1436801219940214B002A36D01A6BFA
:103050000A431A63EBE74368012101FA03F3E2B183
:103060001B4A30BC51690B435361704743680124CC
:1030700004FA03F3164C0129E360F0D143680121FF
:103080009940134BAAB11A690A431A61CFE7A342C8
:10309000F4D0AB42D5D030BC70470D4A30BC51693A
:1030A00021EA030353617047094A516B0B43536391
:1030B000BDE71A6922EA01021A61B8E71A6B22EA2F
:1030C00001021A63B3E700BF00C0092040C0092015
:1030D0008080024038B5431C04460D4617D004F1E9
:1030E0006040A0F51C2000F00F035B0003229A4013
:1030F0009D4003099B0003F1804303F530331968B9
:1031000021EA02021A601A6815431D6038BD03489F
:1031100003491522FFF73CFDE1E700BF3CB4000086
:10312000E8B4000038B5431C04460D462CD004F129
:103130006040A0F51C2000F01F04C5F3800202FAD5
:1031400004F443099B0003F1804303F53033996E87
:1031500021EA04019966996E0C439C669AB900F0C5
:103160000F035B0003229A4005FA03F30009800075
:1031700000F1804000F53030016C21EA0202026467
:10318000026C1343036438BD024803492022FFF751
:10319000FFFCCCE73CB40000E8B40000134A38B5AB
:1031A00013680BBB12490124D1F8C4501460114AB2
:1031B000114845F40005C1F8C4501367036801F1D4
:1031C000437101F5F45103319B08A1FB03039B0CF0
:1031D000013B022151600420D36008495460FEF78E
:1031E000F7FC074B10221A6038BD00BF0C0A001014
:1031F00000C00F4000400940D000001071360000B0
:1032000000E100E008B5044B1B680BB9FFF7C6FFEF
:10321000024B986808BD00BF0C0A0010004009402E
:10322000034B98615A6942F001025A61704700BF2E
:1032300000400940024B5A6922F001025A6170476E
:1032400000400940014B01221A60704700400940CC
:103250002DE9F0410468074660680E46043920F005
:1032600002000C2915469846606001D8032A05D94A
:10327000114812496422FFF78BFC3C68206805F076
:103280000103013E46EAC316C5F34005000C46EAB9
:1032900085150004284320606368B8F1000F23F00F
:1032A0000D030CBF0022042213436360636843F0E4
:1032B00002036360BDE8F081C4B5000000B6000001
:1032C000F8B503682E4A5C68934224F0020407466E
:1032D0005C6042D002F5B022934230D0294B0846C0
:1032E0001E6806F081FB0224054603E00234B4F5B3
:1032F000807F40D0B6FBF4F006F076FB294606F05E
:103300007BFC4FF07C5106F0BBFA05F02DFF00F07E
:10331000F7F906F017FAFF28E8DC3B6801381C6172
:103320001A6822F47F0222F47F421A601A6842EA85
:10333000002018605A6842F002025A60F8BD124B31
:10334000D3F8AC2122F44062C3F8AC21D3F8AC210D
:1033500042F48062C3F8AC21C0E70B4BD3F8A8213C
:1033600022F44012C3F8A821D3F8A82142F4801215
:10337000C3F8A821B2E70548BDE8F840FFF71EBC36
:1033800000000340D000001000C00F4068B60000ED
:103390002DE9F04F044683B00846894644499046DB
:1033A0001F460C9EFFF7BCFC424903464046019372
:1033B000FFF7B6FC404905463846FFF7B1FC3F49E8
:1033C00083463046FFF7ACFC019B294682461846EF
:1033D000FFF786FC514605465846FFF781FC01463B
:1033E0002846FFF77DFC421C20605AD0344B98429F
:1033F0004FD003F5B023984223D0731C2BD0204626
:10340000002201230821FFF723FF20462D49FFF763
:1034100057FF236848465A68254942F002025A601D
:10342000FFF73EFC40462349FFF73AFC3846224965
:10343000FFF736FC2149304603B0BDE8F04FFFF7F7
:103440002FBC03F5E823D3F8C42042F40012C3F8DC
:10345000C420731CD3D10022134620460821FFF755
:10346000F7FE20461749FFF72BFF236848465A68A6
:103470000F4942F002025A60FFF712FC40460D4924
:10348000FFF70EFC0C49384603B0BDE8F04FFFF7DC
:1034900007BC0D4BD3F8C42042F48062C3F8C420AB
:1034A000ABE70A480A494422FFF772FB20689DE710
:1034B000A4B600004CB5000088B50000E0B60000DE
:1034C0000000034040420F0000C00F4090B60000D3
:1034D00000B600000368DA689007FCD59960DA68E6
:1034E0005207FCD598687047094A8368026053B157
:1034F000084B1A68824201D106E01A46536883429B
:10350000FBD143685360704742681A60704700BF40
:1035100028B70000100A00100C4A836810B5044652
:10352000026053B10A4B1A68904201D10AE01A4670
:1035300053689C42FBD163685360204600F0DDF87D
:10354000204610BD42681A60F7E700BF28B70000A8
:10355000100A0010074B10B400240273816080E849
:10356000180019B1044B1A68186042605DF8044BEA
:10357000704700BF28B70000100A00100D4B70B54F
:103580001C6806460D4614B912E0646884B1A3684D
:1035900031462A461846002BF7D002F0E0FA002800
:1035A000F3D1A06802F0D3FAA842EED1204670BD54
:1035B000002070BD100A0010007B704710B5074B4B
:1035C000044603F108023433226040F8043FFFF759
:1035D0008BFF2046FEF782F8204610BD30B7000072
:1035E000A0F10400FFF7EABF094B10B503F1080290
:1035F00004463433226040F8043FFFF775FF20464D
:10360000FEF76CF8204600F078F8204610BD00BFA9
:1036100030B70000A0F10400FFF7E6BF074B10B57C
:103620000022044640F8043BFFF794FF044B204679
:1036300003F10802343384E80C0010BDD0AD000063
:1036400030B70000002280E806008261704700BFAA
:10365000002380E80A00704708B5036801460BB1F3
:10366000984708BD406810B18B690831984708BD7C
:1036700070B5FFF7E7FD0E4C0E4E236873B11D6861
:10368000FFF7C0FD281A00280CDC216832688B681F
:103690002360002AF2D048689047EEE7BDE870400A
:1036A000FFF7C8BD2368BDE870401868FFF7B8BDD4
:1036B000140A0010180A001000F000B810B5002815
:1036C00014BF04460124204600F0ACFD30B900F0E0
:1036D00007F808B900F0A0F88047F4E710BD000033
:1036E000024B1868BFF35F8F704700BF1C0A0010C1
:1036F00003460846194600F09BB800F09BBD000049
:103700002DE9F047C1F30A58A8F2FF36132E0B46F5
:1037100004460D460246894607461DDC002E40DB66
:10372000DFF8F08048FA06F808EA010E5EEA0202C5
:1037300017D035A3D3E9002305F0B8FB00220023FE
:1037400005F0F6FF20B1002D40DB29EA080500272F
:1037500038462946BDE8F087332E06DDB6F5806F82
:103760002FD020461946BDE8F087A8F213424FF04B
:10377000FF3A2AFA02FA1AEA000FF2D022A3D3E99A
:10378000002305F093FB0022002305F0D1FF002861
:10379000DED0002D1FDB4D4627EA0A0738462946B2
:1037A000D8E719A3D3E9002305F080FB002200230A
:1037B00005F0BEFF0028CBD0002D1ADB00273D46C8
:1037C000C6E702460B4605F071FBCCE74FF48013C9
:1037D00033419944B9E7142E08D0C8F5866808F13A
:1037E0000308012303FA08F31F19D4D309F10109CF
:1037F000D1E725F00042064B224318BF1D460027A3
:10380000A6E700BFAFF300809C7500883CE4377EDC
:103810000000F0BFFFFF0F0008B5062002F0DEF841
:103820000120FEF7D5F80028B8BF404270470000DD
:1038300038B5054604480C46134620B102202946F7
:103840002246AFF3008038BD00000000014B18682D
:10385000704700BF5001001008B5074B044613B174
:103860000021AFF30080054B1868836A03B19847C5
:103870002046FEF7ADF800BF00000000D4B70000FE
:1038800070B505460C4609B9002070BD18B18369B2
:103890000BB900F083F9204B9C4201D16C6808E021
:1038A0001E4B9C4201D1AC6803E01D4B9C4208BFFB
:1038B000EC68B4F90C30002BE6D02846214600F025
:1038C00039F8236B064633B12846216A9847002809
:1038D000B8BF4FF0FF36A3891B0603D528462169E0
:1038E00000F0D2FC616B41B104F14403994202D073
:1038F000284600F0C9FC00236363A16C21B128466F
:1039000000F0C2FC0023A36400F0B2F90023A381FD
:1039100000F0AFF9304670BD70B7000090B70000FE
:10392000B0B70000024B01461868FFF7A9BF00BFFF
:10393000500100108A892DE9F041054610070C4618
:1039400057D44B68002B02DC0B6C002B18DDE66AA9
:10395000B6B102F48052002392B22F682B600AB1F4
:10396000626D10E0216A28460123B047411C0246DF
:1039700009D12B683BB11D2B01D0162B46D12F60EE
:103980000020BDE8F081A3895B0705D56368D21AE2
:10399000636B0BB1236CD21AE66A00232846216AB6
:1039A000B047461CA38905D12A681AB11D2A01D047
:1039B000162A19D1002262602269D904226004D536
:1039C000421C01D12B6803B96065616B2F6000292F
:1039D000D6D004F14403994202D0284600F054FCAA
:1039E00000206063BDE8F08143F04003A381BDE89F
:1039F000F0810F69002FC3D093070E680CBF4B698D
:103A00000023C7EB06080F608B6012E0A3894FF01C
:103A1000FF3043F04003A381BDE8F0812846216ACE
:103A20003A464346A66AB0470028EFDD0744C0EB9C
:103A30000808B8F1000FF1DCA2E7000038B50B6907
:103A400005460C46DBB118B183690BB900F0A6F846
:103A50000C4B9C4201D16C6808E00B4B9C4201D19D
:103A6000AC6803E0094B9C4208BFEC68B4F90C3029
:103A70002BB128462146BDE83840FFF75BBF002048
:103A800038BD00BF70B7000090B70000B0B70000AD
:103A9000014620B9044B0549186800F033BB044BBC
:103AA0001868FFF7CBBF00BFD4B700003D3A000055
:103AB0005001001038B50C46054618B183690BB9A2
:103AC00000F06CF80E4B9C4201D16C6808E00D4B85
:103AD0009C4201D1AC6803E00B4B9C4208BFEC68F0
:103AE0006368013B002B636005DA28462146BDE888
:103AF000384001F021BE23685A1C2260187838BD76
:103B000070B7000090B70000B0B70000024B01464C
:103B10001868FFF7CFBF00BF50010010014900F047
:103B2000F1BA00BF3D3A000010B50446002303601F
:103B30004360836081814366C28103614361836125
:103B400019465C30082200F096FB054B2462636244
:103B5000044BA362044BE362044B236310BD00BF1C
:103B6000B15A0000D75A00000F5B0000335B000021
:103B700070B568234D1E5D430E4605F1740100F0DB
:103B8000C7FB044640B1002180E842000C30A06031
:103B900005F1680200F06FFB204670BD836910B527
:103BA000044633BB8364C3640365124B124A1B682B
:103BB0008262984204BF0123836100F01FF86060B5
:103BC000204600F01BF8A060204600F017F8042102
:103BD000E06000226068FFF7A7FFA06809210122CA
:103BE000FFF7A2FFE06812210222FFF79DFF0123E9
:103BF000A36110BDD4B700001D3B0000F8B51B4BFE
:103C000007461E68B36913B93046FFF7C7FF483649
:103C1000B4687368013B04D4B4F90C5075B16834CE
:103C2000F8E733682BB938460421FFF7A1FF30606D
:103C300008B13668ECE70C233B60F8BD4FF6FF7324
:103C4000E3810123A38165662560A5606560256128
:103C50006561A56104F15C002946082200F00BFBB8
:103C60006563A563A564E5642046F8BDD4B700008C
:103C700070477047F7B50F46114601AA054603F095
:103C80003FFE064608B9002029E02846FFF7B6FFA8
:103C900004460028F7D028463946019A4FF4DB73D2
:103CA00001F06CFC002806DA0025FFF7E1FFA58192
:103CB000FFF7DFFFE7E70B4BE08163620A4BA6816A
:103CC000A3620A4B2462E362094B2363F30505D523
:103CD000284621460022022300F06AF9204603B05C
:103CE000F0BD00BFB15A0000D75A00000F5B0000C2
:103CF000335B000003460A46024908681946FFF78D
:103D0000B9BF00BF500100100EB403B5014603ABAC
:103D1000054853F8042B0068019300F077FB02B0CC
:103D20005DF804EB03B070475001001070B50E460B
:103D30001446054618B183690BB9FFF72FFF0A4BEC
:103D40009C4201D16C6808E0084B9C4201D1AC68F0
:103D500003E0074B9C4208BFEC68284631462246E8
:103D6000BDE8704001F01CBC70B7000090B70000C7
:103D7000B0B7000003460A46024908681946FFF733
:103D8000D5BF00BF5001001070B50D461446064661
:103D900018B183690BB9FFF701FF224B9C4201D197
:103DA000746808E0204B9C4201D1B46803E01F4BCB
:103DB0009C4208BFF468A3891A0701D523699BB9FF
:103DC0003046214602F0DAFE70B14FF0FF3070BD90
:103DD000A368013B002BA3600BDB236815F8012CC3
:103DE0001A7023680133236015F8010B0028EFD106
:103DF00016E0A269934209DB236815F8012C1A70BA
:103E0000236819780A29EDD1304602E0304615F8CA
:103E1000011C224602F04CFE431C58425841D3E795
:103E200070BD00BF70B7000090B70000B0B70000D1
:103E300003460A46024908681946FFF7A5BF00BFB6
:103E4000500100102DE9F7430E4617461C46054663
:103E500018B183690BB9FFF7A1FE474B9C4201D112
:103E60006C6808E0454B9C4201D1AC6803E0444BD0
:103E70009C4208BFEC682846394601AA03F040FD81
:103E8000804628B928462146FFF7FAFC404670E0F4
:103E9000A3891BB92023A3816EB917E01A0703D5A4
:103EA00028462146FFF7CAFD236B002B5ED06EB17A
:103EB0002846216A984728463146019A4FF4DB7319
:103EC00001F05CFBD5F80090074608E0236B13B1C6
:103ED0002846216A98474FF009094FF0FF37A38918
:103EE0001B0603D52846216900F0CEF9616B00233B
:103EF000A3606360236023616361A3611E4639B1DF
:103F000004F14403994202D0284600F0BDF96663EB
:103F1000A16C0026A66319B1284600F0B5F9A66485
:103F2000A389002623F40053E664A381666604F1A6
:103F30005C003146082200F09EF9B74208DAFFF72C
:103F400097FEA681C5F80090FFF793FE304610E07B
:103F50000C4BA4F80C8063620B4BE781A3620B4B04
:103F60002462E3620A4B2046236302E0002EA2D1C2
:103F7000B1E703B0BDE8F08370B7000090B7000070
:103F8000B0B70000B15A0000D75A00000F5B000024
:103F9000335B000030B505460C461346034A2946FC
:103FA00010682246BDE83040FFF74CBF50010010BA
:103FB00000F000B82DE9F8430C4690461E46054631
:103FC00018B183690BB9FFF7E9FD3D4B9C4201D164
:103FD0006C6808E03B4B9C4201D1AC6803E03A4B73
:103FE0009C4208BFEC68A38903F48473B3F5847F13
:103FF00003D128462146FFF721FDE76A0FB91D23AB
:104000002BE0012E04D0022E2BD056B3162324E031
:1040100028462146FFF712FDA28902F4805292B28F
:104020000AB1606D05E0216A28463346B847411C55
:1040300014D0A3895A0706D56368C01A636B4BB1C5
:10404000236CC01A06E01B0704D5236813B122694C
:104050009B1A18448044002603E02B604FF0FF3980
:104060002BE023691BB92846214600F08FF828462B
:104070002146FFF7E3FC81460028EFD12846216A5C
:1040800042463346B8470130E8D0616B41B104F194
:104090004403994202D0284600F0F6F800236363F7
:1040A000236900212360A389616023F40263A38153
:1040B00004F15C00082200F0DEF84846BDE8F88311
:1040C00070B7000090B70000B0B700002DE9F041D4
:1040D000884600F1480400268CB1A5686768013F56
:1040E0000BD4AB89012B06D9B5F90E30013302D0C0
:1040F0002846C04706436835F1E72468ECE73046B8
:10410000BDE8F0812DE9F8438046894600F1480476
:10411000002694B1A5686768013F0CD4AB89012BD8
:1041200007D9B5F90E30013303D040462946C847B8
:1041300006436835F0E72468EBE73046BDE8F883CE
:104140000E4B70B51E460E4C0025E41AA410A54275
:1041500004D056F8253098470135F8E705F0B4FE4D
:10416000084B094C1E46E41AA4100025A54204D0B1
:1041700056F8253098470135F8E770BD90010010DA
:10418000900100109001001098010010F0B58B898B
:1041900091B09D0706460C4625D4B1F90E100029B2
:1041A00008DAA389002513F0800F14BF40274FF4CD
:1041B00080670DE001AA03F0DBFB0028F1DB029D24
:1041C0004FF4806705F47045A5F500514D424D410F
:1041D0003046394600F09CF860B9A3899A051DD491
:1041E00043F00203A38104F1470323602361012309
:1041F000636113E00A4BB362A389206043F080033C
:10420000A381206167614DB13046B4F90E1003F00F
:10421000CDFE18B1A38943F00103A38111B0F0BD15
:104220001D3B0000024B0146186800F071B800BF4A
:1042300050010010024B0146186800F025B800BF7D
:104240005001001010B5C9B202449042034605D097
:104250001C7801308C42F8D1184610BD002010BDEA
:1042600010B5431E0A44914204D011F8014B03F8E3
:10427000014FF8E710BD03460244934202D003F811
:10428000011BFAE77047000030B500293CD051F817
:10429000042C0B1F1D49002AB8BF9B180A680C4646
:1042A00012B95A600B6030BD93420DD2196858188C
:1042B000904201BF5A5852181A60426823605A60EF
:1042C00030BD994203D80A4651680029F9D11468D3
:1042D00015199D420AD11B682344D01888421360E7
:1042E00012D10868034413604B680CE002D90C2318
:1042F000036030BD1C681819884201BF086849680E
:10430000001918605960536030BD00BF240A0010C6
:1043100070B5CC1C24F0030408340C2C38BF0C24DA
:10432000002C064603DA0C233360002070BD8C425B
:10433000F9D3204A136810461946A1B10A68121B26
:104340000ED40B2A03D90A608B188C501FE08B42C5
:104350000BBF5A684A6802605A6018BF0B4616E0E5
:104360000B464968E9E7144D2B681BB9304601F04C
:1043700037FA28603046214601F032FA421C0346E3
:10438000D1D0C51C25F0030585420AD11C6003F17C
:104390000B001A1D20F00700821A0AD051429950D2
:1043A00070BD3046E91A01F01BFA0130BBD02B4634
:1043B000ECE770BD240A0010200A0010936810B5C5
:1043C000013B002B936009DA9469A34202DBCBB274
:1043D0000A2B03D1BDE8104002F06ABB1368581CD9
:1043E00010601970C8B210BDF8B506460F461446E5
:1043F000D518AC4208D0304614F8011B3A46FFF7F6
:10440000DDFF431CF5D100E00020F8BD2DE9F043AD
:104410009DB00D4690460393064618B183690BB9CB
:10442000FFF7BCFB754B9D4201D1756808E0744BEA
:104430009D4201D1B56803E0724B9D4208BFF5680B
:10444000AB891C070AD52B6943B1002309932023AC
:104450008DF8293030238DF82A3041E03046294646
:1044600002F08CFB0028F0D04FF0FF30C2E0039A3E
:104470000134111D12680391002ABBBF524243F060
:10448000020307920792B8BF049323782E2B7BD0A8
:10449000DFF88081217840460322FFF7D3FE38B150
:1044A000049AC8EB00004023834013430493013473
:1044B00021785548062204F101088DF82810FFF7ED
:1044C000C1FE002800F08580504B002B78D1039B63
:1044D000073323F0070308330393099B3B440993F5
:1044E00043461C4613F8012B1AB9B4EB08090ED049
:1044F00002E0252AF5D1F8E73046294642464B46E8
:10450000FFF772FF013070D0099B4B440993237869
:10451000002B6AD000234FF0FF32049307930592DB
:1045200006938DF853301A9304F101084446DFF8DE
:10453000E890217848460522FFF784FE08F101083B
:10454000049B30B1C9EB0000012282401343049365
:10455000ECE7D80644BF20228DF85320190744BF4A
:104560002B228DF8532022782A2A80D023460799BF
:104570001C4622780133303A092A03D80A2000FB6E
:104580000121F5E7079180E763782A2B0AD1039B85
:1045900002341A1D1B680392002BB8BF4FF0FF3383
:1045A000059375E7611C00220C4623780131303BEE
:1045B000092B03D80A2000FB0232F5E7059267E7D2
:1045C00003AB0093304604A92A46114B00F0C4F80F
:1045D00007E003AB0093304604A92A460C4B00F0D9
:1045E00077FB421C07467FF478AFAB895B063FF54B
:1045F0003BAF09981DB0BDE8F08300BF70B7000065
:1046000090B70000B0B70000E2B7000059470000C3
:10461000E9430000DEB70000D8B7000030B505461A
:104620000C461346034A294610682246BDE830402E
:10463000FFF7ECBE500100102DE9F0471E4688B090
:10464000149F002BB8BF06F10043129927F02007F2
:10465000B6BF1E4600232D23462F1446109DDDF8BD
:104660004CA00B7003D0452F03D1013501E003238B
:1046700000E002238DE8280406AB039307AB049304
:104680002246334602F080FB472F804602D1119B21
:10469000DB0726D5462F08EB050911D198F8003025
:1046A000302B0AD1204631460022002305F018F8AD
:1046B00018B9C5F10105CAF80050DAF8003099447C
:1046C000204631460022002305F00AF808B1CDF853
:1046D0001C90079B4B4504D25A1C079230221A703B
:1046E000F7E74046079B159AC8EB0303136008B031
:1046F000BDE8F087034673B50029B8BF494203F807
:10470000022BB4BF2D222B22092942701ADD0DF194
:10471000070426460A2291FBF2F502FB1511092D2A
:1047200001F1300104F8011D2946F3DC3031651E2A
:1047300004F8011CB5421A460AD215F8012B03F8F9
:10474000012BF7E71A463024214402F8024B597036
:10475000101A02B070BD00002DE9F04F91B08B46E9
:1047600015461E461A9F044603F030FCD0F800A000
:10477000504601F0ECF900230E933B680990073393
:1047800023F0070303F108029BF818803A60D3E98D
:104790000023CBE91223DBE9120100F0F9FF012825
:1047A000DBE9120119D10022002304F0A3FF10B1AC
:1047B0002D238BF84330A04BA04FB8F1470F88BF93
:1047C0001F460323CBF81030DBF8003023F004033E
:1047D000CBF800304FF00009A1E000F0D9FFDBF882
:1047E000003048B9964A974FB8F1470F88BF17462F
:1047F0000322CBF81020E9E7DBF80420DBE9120103
:10480000571CCDE90A0101D1062209E0B8F1670F72
:1048100002D0B8F1470F05D1002A40F0C78101222C
:10482000CBF80420DBF8042043F480638DE80C000F
:10483000CBF800300DF1330302930DAB03930EABB5
:10484000059300230693CDF81080DDE90A23204666
:10485000FFF7F2FE08F0DF03472B07460AD10D9B56
:10486000D81C03DBDBF80420934237DDA8F10208F3
:104870005FFA88F8B8F1650F0D9915D801394246ED
:104880000BF150000D91FFF735FF0E9A814683180A
:10489000012ACBF8103003DCDBF80020D10738D533
:1048A0000133CBF8103034E0B8F1660F18D100298D
:1048B000DBF8043009DDCBF810101BB9DBF8002061
:1048C000D20721D501330B441CE01BB9DBF80020D3
:1048D000D00701D5023315E0012313E04FF067083C
:1048E0000D9B0E9A934207DBDBF80020CBF81030CB
:1048F000D10709D5013305E0002BD4BFC3F1020372
:1049000001231344CBF810300D9B4FF00009CBF876
:1049100058309DF8333013B12D238BF84330009677
:10492000204659460FAA2B4600F05CF9013002D10F
:104930004FF0FF3052E1DBF800305A0505D4204635
:1049400029463A46DBF8103008E1B8F1650F40F22D
:10495000D080DBE912010022002304F0C1FE50B335
:1049600020462946384A0123B0470130E0D00E9B4B
:104970000D9A9A4209DBDBF80030D80705D4DBF842
:1049800000309F0700F1108107E12046294652467A
:10499000099BB0470130CBD000270E9B013B9F42C3
:1049A000EDDA204629460BF11A020123B047013007
:1049B000BED00137F1E70D9B002B29DC20462946AC
:1049C000214A0123B0470130B2D00D9B2BB90E9B79
:1049D0001BB9DBF80030D907D1D52046294652460D
:1049E000099BB0470130A3D04FF000080D9B204633
:1049F0005B429845294608DA0BF11A020123B047B9
:104A0000013095D008F10108F0E73A460E9BA5E089
:104A1000DBF858200E9B9A42A8BF1A46002A9146FE
:104A200002DC4FF000081CE0204629463A464B467F
:104A3000B0470130F5D17BE7EDB70000E9B70000E2
:104A4000F5B70000F1B7000042B800002046294643
:104A50000BF11A020123B04701303FF469AF08F1AE
:104A60000108DBF85830B9F1000FB4BF1A46C9EBA2
:104A700003029045EADB07EB03080D9A0E9B9A426E
:104A800010DBDBF80030DA070CD40E9A1744C8EBC1
:104A900007030D9FD21B9342A8BF1346002B1F464E
:104AA00008DC0EE0204629465246099BB0470130FB
:104AB000EBD13DE7204629464246B04701303FF45E
:104AC00037AF4FF000080AE0204629460BF11A02E2
:104AD0000123B04701303FF42BAF08F101080D9AD4
:104AE0000E9B002FA3EB0203A8BFDB1B9845EBDB5B
:104AF00045E70E9A012A01DCDB0736D52046294618
:104B00003A460123B04701303FF412AF2046294610
:104B10005246099BB04701303FF40AAFDBE912016E
:104B20000022002304F0DCFDE8B90E9B2046294654
:104B30007A1C013B1DE0204629460BF11A02012395
:104B4000B04701303FF4F4AE01370E9B013B9F426A
:104B5000F1DB204629464B460BF15002B0470130AD
:104B60007FF40DAFE4E60027EFE7204629463A46FA
:104B70000123B0470130ECD1DAE6204629460BF19B
:104B800019020123B04701303FF4D2AE0137DBF800
:104B90000C300F9A9B1A9F42EFDBDBF80C000F9B47
:104BA0009842B8BF184619E00027F0E743F4806345
:104BB0008DE80C00CBF800300DF1330302930DAB00
:104BC00003930EAB059300230693CDF81080204687
:104BD000DDE90A23FFF730FD074640E611B0BDE8E6
:104BE000F08F00BF2DE9F84391461F468A680B6994
:104BF00006469342B8BF1346C9F8003091F84320E7
:104C00000C46DDF8208012B10133C9F8003023686A
:104C1000990642BFD9F800300233C9F80030256840
:104C200015F006051CD094F843302268003318BFF5
:104C3000012392061FD5E118302081F843005A1C49
:104C400094F845102244023382F8431013E03046B2
:104C5000394604F119020123C047013007D001355C
:104C6000E368D9F800209B1A9D42F0DBDBE74FF0A8
:104C7000FF30BDE8F8833046394604F14302C047AF
:104C80000130F4D02268D9F80050E36802F006023F
:104C9000042A08BF5D1B2269A3680CBF25EAE575DD
:104CA00000259342C4BF9B1AED184FF00009A94597
:104CB0000ADA3046394604F11A020123C0470130AE
:104CC000D5D009F10109F2E70020BDE8F883000022
:104CD0002DE9FF410C461746227E98466E2A06466D
:104CE0000A9B01F1430100F0B08012D8632A23D05F
:104CF0000AD8002A00F0BD80582A40F0CC8084F801
:104D00004520DFF804E257E0642A1ED0692A1CD04F
:104D1000C1E0732A00F0B18009D86F2A2ED0702A22
:104D200040F0B980226842F0200222603FE0752AFC
:104D300024D0782A3BD0AEE01A6804F14205111D58
:104D40001960136884F84230A9E020681A6810F0EE
:104D5000800F02D0101D186008E010F0400F02F123
:104D60000400186002D0B2F9003000E01368002B94
:104D70003EDA2D225B4284F8432039E020681A682D
:104D800010F0800F02D0101D186007E010F0400FE7
:104D900002F10400186001D0138800E01368227E3D
:104DA000DFF864E16F2A0CBF08220A221CE0782297
:104DB000DFF858E184F845202268186812F0800F67
:104DC00000F104051D6003D1550601D5038800E0FC
:104DD0000368D00744BF42F0200222601BB922685A
:104DE00022F0200222601022002084F8430002E01A
:104DF000DFF814E10A226568002DA8BF2068A560CD
:104E0000A4BF20F00400206003B965B10D46B3FBD8
:104E1000F2F002FB10331EF8033005F8013D0346A3
:104E20000028F4D100E00D46082A0BD12368DA07E8
:104E300008D5236962689A42DEBF302305F8013C39
:104E400005F1FF35491B21612EE025681A6815F030
:104E5000800F606903D0151D1D60136808E015F010
:104E6000400F02F104051D60136801D0188000E0B6
:104E70001860002323610D4616E01A68111D1960A1
:104E80001568002128466268FFF7DCF908B1401B6D
:104E90006060636804E004F1420584F84220012365
:104EA0002361002384F84330CDF80080304621464A
:104EB00003AA3B46FFF796FE013002D14FF0FF30C8
:104EC0001FE0304639462A462369C0470130F5D0F5
:104ED00023689B0705D4E068039B9842B8BF184637
:104EE0000FE00025E368039A9B1A9D42F3DA3046EF
:104EF000394604F119020123C0470130DED00135E3
:104F0000F0E704B0BDE8F081F9B700000AB800008E
:104F10002DE9F04F99468B6815465A1EB2F5AE7FC3
:104F200082BF6FF4AE7203EB020C40F25D130F46CA
:104F300088BF8B600B684FF0000B43F4F06347F8B9
:104F40001C3B06460C46B8465A46DA4687B098BF20
:104F50004FF0000CCDF80CB0CDF808B0CDF804B08F
:104F6000A168002900F0EC802B681B78492B70D0D9
:104F700016D8392B0DD8312B40D22D2B46D002D844
:104F80002B2B43D0DCE02E2B00F09280302B23D053
:104F9000D6E0452B00F09580462B77D0412B0CE0D6
:104FA000652B00F08E800AD8542B75D002D84E2B7A
:104FB00034D0C5E0592B75D0612B46D0C0E06E2BA4
:104FC0002CD004D8662B61D0692B42D0B8E0742B6A
:104FD00062D0792B66D0B3E0206810F4807F0DD0CA
:104FE00020F0800020600AF1010ABCF1000F00F0FF
:104FF0008A8001310CF1FF3CA16084E012EB0B0FC1
:1050000040F09E80216821F4C07105E02168080607
:1050100040F1968021F08001216070E06AB9BAF118
:10502000000F0CD1216801F4E060B0F5E06F06D10B
:1050300021F4F0612160012261E0022A5ED0BBF11F
:10504000010F1ED0BBF1040F1AE0012A78D1022211
:1050500055E0BBF1000F0ED1BAF1000F73D12168FA
:1050600001F4E060B0F5E06F71D121F4F0612160EE
:105070004FF0010B43E0BBF1030F02D0BBF1050F72
:105080005ED10BF1010B5FFA8BFB38E0BBF1020F35
:1050900056D14FF0030B32E0BBF1060F50D14FF069
:1050A000070B2CE0BBF1070F4AD14FF0080B26E0AD
:1050B0002168880544D521F420712160CDF804A031
:1050C0001DE0216801F4A060B0F5806F04D04805B0
:1050D00036D5BAF1000F3AD0880558BF019821F4AF
:1050E000F06158BFC0EB0A0041F4C0715CBF029090
:1050F000CDF80C8021604FF0000A00E0032288F810
:10510000003008F10108A368013BA3602369013363
:1051100023616B68013B002B6B6003DD2B6801335F
:105120002B601DE7D4F88031304629460592CDF832
:1051300010C09847DDF810C0059A00283FF410AF62
:10514000BAF1000F03D0236823F480732360013A7F
:10515000012A0ED8B8450AD9D4F87C31304618F85F
:10516000011D2A4698472369013B2361F2E7012587
:10517000AEE00BF1FF33062B22D8BBF1020F12D9A0
:10518000ABF1030B5FFA8BFBCBEB080BD84517D0C9
:10519000D4F87C31304618F8011D2A469847236917
:1051A000013B2361F2E7B845E1D9D4F87C313046C0
:1051B00018F8011D2A4698472369013B2361F2E74D
:1051C0002368DA052CD55B050CD5B845CFD9D4F8C2
:1051D0007C31304618F8011D2A4698472369013B67
:1051E0002361F2E718F8011C2369652903F1FF33F5
:1051F00008F1FF3B23610DD045290BD0D4F87C3159
:1052000030462A469847236918F8021C013BA8F14A
:10521000020B2361D4F87C3130462A469847D846A1
:10522000256815F0100552D188F80050236803F462
:10523000C063B3F5806F05D1019BC3EB0A035A42EB
:105240006BB916E0029BA3B1039B2A46591C30465A
:105250000A2301F0F1FA029BDDF80C80C21A04F275
:105260006F13984528BF04F5B77840461A4900F0F7
:10527000D1FB30463946002200F0BEFC22680646CB
:1052800012F0020F0F46D9F8003003D01A1DC9F8EA
:10529000002006E012F0040F03F10402C9F8002018
:1052A00003D01B68C3E900670DE0D3F8008000F06D
:1052B0006FFA10B900F066FB03E03046394604F09F
:1052C00089FAC8F80000E3680133E36000E00025D4
:1052D000284607B0BDE8F08F1BB800002DE9F0416B
:1052E00015468A6880460C4632B98A69002A0CBF86
:1052F00001224FF0FF328A6022680026D1065FBF8C
:105300001A68111D19601768A069F8B92368013679
:10531000DA065EBF2B681B783B702A686B6802F167
:1053200001022A60A26803F1FF3302F1FF326B60D1
:1053300058BF0137A260EAB1002BE5DCD4F8803118
:105340004046294698470028DED013E0012807D1BF
:105350002B6862691B78D35C002BD7D1C6B109E0FA
:10536000022807D12B680B4A1B78126813445B781C
:105370001B07CBD5236813F0100305D1E268013277
:10538000E260A26902B13B70236900201E442661DD
:10539000BDE8F081540100102DE9F04F0C469A460B
:1053A000724B87B08346164693E8070003AB83E849
:1053B00007006F4BA1696F4A04F11C09032918BF4C
:1053C0001A46A36800925A1EB2F5AE7F82BF6FF4F0
:1053D000AE7503EB050840F25D134F4688BFA3602E
:1053E000236898BF4FF0000843F450632360002304
:1053F000326803A951F82300117802220193FEF7C5
:1054000021FF019B002835D0012B0BD162682AB9FE
:1054100008226260226842F400722260226822F44C
:10542000A0620BE0022B0AD1226802F4C061B1F540
:10543000007F1FD11021616042F480722260A26857
:10544000511EA160B2B132687D1C511C31601278CE
:105450003A707268013A002A72600ADCD4F880213E
:105460005846314601939047002841D12F46019B71
:1054700000E02F460133032BBAD163680BB90A232E
:10548000636063683C496069C91A00F0B9F93D4638
:105490000027A3686BB3316860690A78805C40B309
:1054A000302A22680AD1100508D50137B8F1000F5B
:1054B0000BD0013308F1FF38A36006E022F410623C
:1054C00022600B78013505F8013C7368013B002B25
:1054D000736003DD33680133336005E0D4F8803155
:1054E00058463146984720B9A368013BA360D0E7EE
:1054F00000272368D9050DD54D4509D915F8011C9C
:1055000005F1FF38D4F87C31584632469847454675
:105510004D4527D0226812F010021BD12A70636813
:1055200058464946009EB0472268DAF8003012F02B
:10553000200F07D1D20705D51A1DCAF800201B6815
:10554000188004E01A1DCAF800201B681860E36880
:105550000133E360C9EB05053D44276900203D4464
:10556000256100E0012007B0BDE8F08F20B8000001
:1055700045690000396800003CB8000038B5074CA8
:10558000054600202060084611461A46FCF7E2F85E
:10559000431C02D1236803B12B6038BD300A0010D0
:1055A00070B50E461446054618B183690BB9FEF76F
:1055B000F5FA164B9C4201D16C6808E0144B9C42F2
:1055C00001D1AC6803E0134B9C4208BFEC68A368B0
:1055D000013B002BA36011DAA269934207DB236829
:1055E0001E70236819780A290BD1284601E0284645
:1055F00031462246BDE8704001F05ABA23681E7059
:1056000023685A1C2260187870BD00BF70B7000074
:1056100090B70000B0B70000838903F00903092B9D
:1056200001D1FEF735BA002070470000F8B50C46EE
:10563000054618B183690BB9FEF7B0FA394B9C42A5
:1056400001D16C6808E0384B9C4201D1AC6803E0A2
:10565000364B9C4208BFEC68A2890023636093B27A
:105660009E065AD458071AD4D90605D4092342F005
:1056700040022B60A28150E01A070BD52846214634
:10568000FEF7DCF9002848D1A389A06023F00803C5
:10569000A381A061A38943F00403A38110E0616B9F
:1056A00071B104F14403994202D02846FEF7ECFDA3
:1056B000236C00206063636013B1E36B2360F8BD6B
:1056C00023691BB928462146FEF760FDA789BEB2B3
:1056D000B3070FD00123A381154B1649186806F0B4
:1056E0000906FEF7F3FC092EA78103D128462146BF
:1056F000FEF720F92269666A22602846216A6369FA
:10570000B047002860600BDCA38917BF002243F07C
:10571000200343F040036260A3814FF0FF30F8BDE7
:105720000020F8BD70B7000090B70000B0B70000CF
:10573000D4B700001956000038B50C46054618B11C
:1057400083690BB9FEF72AFA0E4B9C4201D16C68B3
:1057500008E00D4B9C4201D1AC6803E00B4B9C422E
:1057600008BFEC6828462146FFF760FF38B9636838
:10577000013B636023685A1C2260187838BD4FF0E3
:10578000FF3038BD70B7000090B70000B0B7000020
:1057900031F0004310B51BD00F4AA1F5801494429C
:1057A00010D901F1FF410C4A01F5E001914209D9FC
:1057B000B3F5801F08D3094A934207D1B0FA80F0AD
:1057C000400910BD042010BD032010BD002010BDF5
:1057D0000028E6D1022010BDFFFFDF7F0000F07F30
:1057E00038B5064C0023054608462360FCF7DCF874
:1057F000431C02D1236803B12B6038BD300A00106E
:10580000F0B50A78441E5E2A13BF4B1C8B1C4A78E5
:10581000002108BF012100F1FF0504F8011FAC427F
:10582000FBD10AB9581EF0BDC1F10104E7B287549B
:1058300019785E1C2D2905D05D290ED079B10A4654
:105840003346F3E75D785D2DF9D09542F7DB0233FF
:105850000132AA428754FBDBEAE73046F0BD184626
:10586000F0BD00290CBF022200224FF4806300F03B
:1058700001B800002DE9F0411D463D4B04461E686D
:105880000F46904626B1B36913B93046FEF786F944
:10589000384B9C4201D1746808E0374B9C4201D1DF
:1058A000B46803E0354B9C4208BFF468B8F1020FBE
:1058B0005AD8002D58DB30462146FEF7BFF80023AA
:1058C0006360A361A3891B0603D530462169FEF7F7
:1058D000DBFCA389B8F1020F23F08303A38112D06C
:1058E00037BB002D08BF4FF480652846FEF79AFCB1
:1058F0000746C8B94FF48060FEF794FC074688B9A4
:105900004FF0FF3000E00020A38943F00203A381A1
:105910000023A36004F14703236023610123636133
:10592000BDE8F0814FF48065A38943F08003A38133
:10593000B8F1010F01BFA38943F00103A3816B42BA
:1059400008BFA3610E4BB362A389276003F0080070
:1059500080B22761656148B113F0030F18BF0025BD
:10596000A5600020BDE8F0814FF0FF30BDE8F08178
:105970005001001070B7000090B70000B0B70000F1
:105980001D3B0000004870470000C07F1F2938B54C
:1059900004460D4604D9162303604FF0FF3038BD8E
:1059A000426C12B152F821304BB9204600F030F869
:1059B0002A4601462046BDE8384000F017B8012BC2
:1059C0000AD0591C03D116230360012038BD0024DE
:1059D00042F8254028469847002038BD024B014632
:1059E0001868FFF7D3BF00BF5001001038B5074C4F
:1059F0000023054608461146236004F05DFA431C67
:105A000002D1236803B12B6038BD00BF300A0010FB
:105A100004F04ABA0EB400B54FF402719CB0ADF870
:105A200014106FF00041049107914FF6FF711DAB08
:105A3000ADF81610084953F8042B02900690086838
:105A400002A9019302F076FF029B00221A701CB09B
:105A50005DF804EB03B07047500100100EB430B590
:105A60009CB01FAC4FF4017254F8045BADF81420E5
:105A70000290069000F06BF80B4B03900B93002301
:105A80000F9314934FF6FF73ADF81630074B079042
:105A900002A918682A462346019403F097F81CB01F
:105AA000BDE8304003B07047D35A000050010010E9
:105AB00010B50C46B1F90E1003F0D6F90028ABBFB3
:105AC000636DA3891B1823F48053ACBF6365A38166
:105AD00010BD002070472DE9F0411D468B89074617
