:1000000000800010E5080000150900001709000035
:10001000190900001B0900001D0900000000000074
:100020000000000000000000000000001F090000A8
:10003000210900000000000023090000250900003C
:1000400027090000270900002709000027090000F0
:1000500027090000270900002709000027090000E0
:1000600027090000270900002709000027090000D0
:1000700027090000270900002709000027090000C0
:1000800027090000270900002709000027090000B0
:1000900027090000270900002709000027090000A0
:1000A0002709000027090000270900002709000090
:1000B0002709000027090000270900002709000080
:1000C00027090000270900002709000010B5054C8A
:1000D000237833B9044B13B10448AFF300800123F4
:1000E000237010BD80010010000000006482000039
:1000F000084B10B51BB108480849AFF30080084809
:10010000036803B910BD074B002BFBD0BDE81040BE
:10011000184700BF00000000648200008401001046
:100120008001001000000000154B002B08BF134B8E
:100130009D46A3F5803A00218B460F461348144A8A
:10014000121A02F0EEF80F4B002B00D098470E4B1E
:10015000002B00D098470020002104000D000D481E
:10016000002802D00C48AFF3008002F03FF82000D6
:10017000290000F07BFB01F0D9FC00BF0000080063
:10018000008000100000000000000000800100104E
:10019000880400100000000000000000704700000C
:1001A00010B50446064B483003F1180240F8483CAD
:1001B0004C330260436001F019F9204610BD00BFC6
:1001C000F87C0000A0F14800FFF7EABFA0F14C0066
:1001D000FFF7E6BF10B5044601F08DFC204610BDC8
:1001E00038B504460D461822002102F09AF8204640
:1001F000294601F0B7F9204638BD000008B5284867
:100200004FF4165101F0A0F8264CA0232370264B82
:100210005A695B6812681A423AD1244B5A695B6882
:1002200012681A4237D1224D0A20EB686A681A60B8
:1002300001F052FA2B696A681E481A60217801F0B1
:100240001BF9174801F088F801281B4C03D1194805
:1002500001F01EF92070194A136951681960184B92
:10026000196958680860217801F00301012921709B
:1002700003D1D36852681A60C6E7022904D0032963
:10028000C2D1D16852680A60DA685B681360BBE764
:10029000A1232370C1E7237843F002032370C2E750
:1002A000E8010010B4010010B8010010D0010010E6
:1002B0006402001030020010480200104C020010CE
:1002C0009C01001010B50446FFF76AFF204601F0BC
:1002D00012FC204610BDA0F14800F3E7A0F14C004D
:1002E000F0E7000038B5174C002320461649174A9E
:1002F00001F0E4F8164A2046164901F0F7FB1649CA
:100300001648FFF76DFF164C16491748FFF768FFB0
:10031000182516491648FFF763FF2A462046002194
:1003200001F0FFFF2046134C134901F009F9204664
:1003300000212A4601F0F5FF2046BDE838400F496C
:1003400001F0FEB8E801001000C0092001C009203A
:10035000C8000010A101000041C009204C0200109B
:10036000B801001040C009209C01001007C00920FE
:1003700064020010D001001009C0092008C0092043
:100380000C4A30B4936894681A46B4F1805F0CD27A
:10039000094A03F1C40553F8044BAB4242F8044F39
:1003A000F9D1044B4FF080529A60103042F820107F
:1003B00030BC704700ED00E0FCFFFF0F2B4A20230C
:1003C00070B4C2F8A031D2F8A031980645D4274BBA
:1003D000022100250124AA2055220B26C3F804116E
:1003E000C3F8A8511946C3F8AC51C3F80C41C3F87F
:1003F0008460C3F88C00C3F88C20C3F88040C3F835
:100400008C00C3F88C20D1F88830184A5B01FAD5EB
:100410000321AA205523C2F88010C2F88C0011468F
:10042000C2F88C30D1F88830104A13F0407FF9D0F0
:100430000F4900230520C2F80801C2F8C410C2F811
:10044000C831136870BC23F4704323F03A0343F4BB
:10045000405343F03A0313607047D2F8A031590675
:10046000B5D4D2F8A0315906F7D5B0E700C00F4097
:10047000DE87280400B599B072B63B49684601F0A2
:1004800071F806A8394901F06DF80CA8384901F057
:1004900069F812A8374901F065F832E00699039B24
:1004A000019A01311A6059D00C990A9B079A0131BF
:1004B0001A604DD01299109B0D9A01311A6041D0EB
:1004C000159B139A96201A6001F012F9009B0133D4
:1004D00032D00699049B019A01311A6026D00C99FA
:1004E000099B079A01311A601AD012990F9B0D9A35
:1004F00001311A600ED0169B139A96201A6001F0F3
:10050000F7F8009B0133C9D11B481C49242200F095
:10051000EDFFC3E718481949242200F0E7FFEAE796
:1005200015481649242200F0E1FFDEE7124813497E
:10053000242200F0DBFFD2E70F481049242200F00C
:10054000D5FFC6E70C480D49242200F0CFFFB7E7DE
:1005500009480A49242200F0C9FFABE706480749C9
:10056000242200F0C3FF9FE732C0092034C00920D5
:1005700035C0092037C00920B4780000CC780000CD
:10058000036870B51B690021012204469847431C8B
:1005900005460ED0236820461B6900210222984799
:1005A0002368064629461B692046002298473046A4
:1005B00070BD70BD084A094B10B4026003F580712C
:1005C000002453F8042B824208BF43F8044C8B42AA
:1005D000F7D15DF8044B7047587900007C02001099
:1005E0000A4A0B4B10B503F58071044602600020E7
:1005F00053F8042B944208BF43F8040C8B42F7D104
:10060000204601F078FA204610BD00BF587900005E
:100610007C02001002480349034A00F031BD00BFCC
:100620007C04001002C0092003C00920F0B50E466A
:1006300085B03549054603F092FA20B9334B1B6863
:1006400063B105B0F0BD2846314903F088FA78B9A6
:100650002E4B1B6843B1012005B0F0BD0190FFF7A0
:10066000D9FF019805B0F0BDFFF7D4FF0120E8E7FE
:100670002846284903F073FA10B3274B002402E000
:100680000134402C21D053F8040F0028F8D12B78E6
:100690003A2B32D0294602A800F0D0FD02A800F083
:1006A0001FFE90B102A800F003FE88B102A800F07E
:1006B00009FE03464BB1194AE01C42F82430C0E75A
:1006C000124B1B68ABB10220BBE74FF0FF30B8E71D
:1006D00002A800F0E1FD05460028F6D0036802A854
:1006E0009F6800F0D7FD324601462846B8470346CA
:1006F000E0E7FFF78FFF0220A3E72846084902AA98
:1007000003F0BEF9029BD5E7347900007C030010AA
:10071000447900003C790000780200107C0200104F
:1007200080790000022808B50BDD084BC21E53F883
:100730002200002143F8221028B103685B68984723
:1007400008BD002008BD4FF0FF3008BD7C0200103E
:10075000022870B50C4616460FDC0E4B1B680BB911
:10076000FFF758FFA51936B114F8011B0A4800F02D
:10077000D7FBAC42F8D1304670BD084B033853F874
:10078000200018B103681B68984770BD4FF0FF3018
:1007900070BD00BF7C0300107C0400107C020010C0
:1007A000022810B50C4609DC0D4B1B688BB10D48B7
:1007B00000F05AFB01232070184610BD0A4B033885
:1007C00053F8200040B103689B68984703461846D9
:1007D00010BDFFF71FFFEAE74FF0FF33ECE700BF64
:1007E0007C0300107C0400107C020010022808B575
:1007F00008DD074B033853F8200028B10368DB6895
:10080000984708BD012008BD4FF0FF3008BD00BF6C
:100810007C020010022808B508DD074B033853F8A6
:10082000200028B103681B69984708BD002008BD57
:100830004FF0FF3008BD00BF7C020010022808B551
:1008400004D84FF400534B60002008BD01F068F954
:10085000092303604FF0FF3008BD00BF08B5012039
:1008600001F064F9704700BF704700BF08B5FFF79B
:10087000FBFFFFF7F7FFBDE80840FFF7BFBC00BF75
:10088000074A13681844EFF30881884202D21060C7
:1008900018467047034B0C221A604FF0FF30704728
:1008A000D0000010840400100A4C08B523680546E7
:1008B000986801F057FA2368D86801F053FA00F0FD
:1008C0003DFE20B905B9FEE7FFF7D4FDFBE700F0D8
:1008D000EFFEF7E734010010002103F018B800BF65
:1008E00001F07EBA0649074A074B9A42BEBF51F84B
:1008F000040B42F8040BF8E704488047044800471B
:1009000098820000C800001080010010BD030000A4
:1009100029010000FEE7FEE7FEE7FEE7FEE7FEE74F
:10092000FEE7FEE7FEE7FEE708B5154A9368C3F366
:100930004203012B1ED0022B19D1124B596F0131EA
:100940000AD0D3F88010986F086093F8A61019B9F0
:10095000516821F001015160186F0A4B48B193F8BA
:10096000A6302BB10021084A1368984708BD08BD7E
:1009700008BD08BD034A106F0028F9D01946F2E7F8
:1009800000800940840300108003001070B50368E4
:10099000294CA34249D041DD284CA3422AD004F57A
:1009A0008044A34244D1264C08263ABB01290BD0EF
:1009B0004568244AC5EBC50502EBC50494F83550DB
:1009C00094F83620EA4214D1012202FA01F5D1F15D
:1009D000010138BF002102FA01F15C6824EA050434
:1009E0005C6003685B68194203D1B240164BC3F8E0
:1009F000802070BD154C0726002AD7D0012505FAA6
:100A000001F176B2304605FA06F65A680A435A6092
:100A10002146FFF7B5FC0C4B1E6070BDA4F5804469
:100A2000A34205D10A4C0526BFE70A4C0626BCE7BF
:100A300000242646B9E700BF0000014000800940BD
:100A4000BD0A00008403001000E100E02909000055
:100A5000590A0000290B000008B5154A9368C3F332
:100A60004203012B1DD0022B18D1124B59680131C2
:100A700009D019699868086093F8361019B9516857
:100A800021F00101516018680A4B48B193F83630E3
:100A90002BB10021084A1368984708BD08BD08BD5E
:100AA00008BD044A10680028F9D01946F2E700BFD3
:100AB00000C00040840300108003001008B5174AEE
:100AC0009368C3F34203012B21D0022B1CD1144B9A
:100AD000D3F8AC1001310BD0D3F8B810D3F8B00074
:100AE000086093F8DE1019B9516821F001015160D6
:100AF000D3F8A8000A4B48B193F8DE302BB100219F
:100B0000084A1368984708BD08BD08BD08BD044AD7
:100B1000D2F8A8000028F8D01946F1E700C0094033
:100B2000840300108003001008B5154A9368C3F3CE
:100B30004203012B1DD0022B18D1124BD96B01316E
:100B400009D0996C186C086093F86E1019B9516847
:100B500021F001015160986B0A4B48B193F86E3057
:100B60002BB10021084A1368984708BD08BD08BD8D
:100B700008BD044A906B0028F9D01946F2E700BF7F
:100B80000000014084030010800300102DE9F04FA5
:100B90000368884A8DB0934209908B4600F3F08039
:100BA000854A934200F0F78040F3D780834A93420E
:100BB00000F09F8002F5804293420CD1804AD2F827
:100BC000AC1121F44021C2F8AC11D2F8AC1141F4BF
:100BD0008021C2F8AC117B494FEA0B1209680891D9
:100BE000089CB1FBF2F102FB114289B20491002A88
:100BF00000F0B1806100A2000123029400240B9157
:100C00000A9201930F4603920693CDF81CB05E46FC
:100C10000594DDF81CA001994FF00008D146CDB233
:100C2000DA46C346002F79DB0399DDF804E0B1FB17
:100C3000F9F464090134C4F34F04DE44002C66D196
:100C40000124B8F1000F67D104FB0EF0029AC00036
:100C5000B2FBF0F00130CAEB500000F04EFFB042A2
:100C600006DA504564D00646CDF814800494069503
:100C70000BF1010B5FFA8BF84545D144D2D8019CAA
:100C8000D3460F2C4FF000035DD0029A0899019CC7
:100C90000A440B99013402920194039A0F440A9C6E
:100CA00007992244594403920791002BB1D0069B27
:100CB000059A099C42EA03102368C0B2197B049C80
:100CC00041F08001C4F30722099C19732368049939
:100CD0001A7123685FFA81FB83F800B0236883F8F8
:100CE000280023681A7B02F07F021A730DB0BDE85A
:100CF000F08F334AD2F8AC1121F44031C2F8AC1174
:100D0000D2F8AC1141F48031C2F8AC1163E7B8F10C
:100D1000000F99D0012C97D8022495E7B7FBF9F47E
:100D20002409DDF804E00134C4F34F04DE4485E710
:100D30000494019CD3460F2C0695CDF8148056469A
:100D40004FF00103A1D10599069A099C41EA0210CE
:100D5000C0B22368B2E71020B0E7A2F58042934208
:100D60007FF439AF164AD2F8A81121F0C001C2F8B9
:100D7000A811D2F8A81141F04001C2F8A8112AE741
:100D80009B221148114900F0B1FB099C0A4A2368D3
:100D900093427FF409AF0A4AD2F8A81121F44071B6
:100DA000C2F8A811D2F8A81141F48071C2F8A811B4
:100DB00011E700BF00C00940000001400080094069
:100DC00000C00F40CC000010307A00004C7A0000C8
:100DD000F8B55D1E012D07460C46164604D9154888
:100DE0001549FB2200F082FB053C032C1CD8042E85
:100DF00014D8013EF6B2032E0DD8104B082253F83A
:100E000026301B01DBB244EA8504144323433A68CD
:100E1000DBB21373F8BD00231A46F4E7084806490D
:100E2000FE2200F063FBE4E706480349FC2200F0E1
:100E30005DFBDCE7B47A00004C7A0000B479000076
:100E4000007B0000DC7A0000436810B40448054CC5
:100E5000C3EBC30344F8332001605DF8044B7047D3
:100E6000800300108403001000B50268137DDB07C7
:100E7000FCD543680949C3EBC30301EBC3035968BD
:100E800010780131C0B207D0596904335B680B6038
:100E9000536843F0010353605DF804FB84030010C2
:100EA0000368187D00F00100704700BF38B5436843
:100EB000184AC3EBC303DB00D1180446C8690130EC
:100EC00011D018331A445368151D013316D06A69BE
:100ED0006B6812681A4204D12368187DC0F3801031
:100EE00038BD002038BD23681B7D9B060CD491F8CB
:100EF00034000F288CBF0020012038BD0648074968
:100F00002C2200F0F3FAE2E7002381F834300120CC
:100F100038BD00BF84030010B4780000847B00005B
:100F200038B504460D462046FFF7C0FF0028FAD02A
:100F30002368EDB21D706268054BC2EBC20203EB81
:100F4000C20393F83420013283F8342038BD00BF47
:100F5000840300102DE9F04F0446454D006883B02E
:100F6000A8420E469046994643D0656800230193F7
:100F70002A46DFF808A1EF00C2EBC202781B4FF04F
:100F8000000E0AEBC0000AEBC20C4FF0FF33C36146
:100F900043607146724620468CF835E0FFF7F6FC58
:100FA00016B903B0BDE8F08F3249404600F058FB57
:100FB00031498346484600F053FBB21E012A38D916
:100FC000012EEED1B8F1FF3FEBD02949226807206E
:100FD0008B45107215D1019B9BB11B7C019A254951
:100FE00043F040034046137403B0BDE8F04F00F0F7
:100FF00005BB037C656803F03F03037462680190DE
:10100000B7E77D1B0AEBC50041460430002200F023
:10101000CBFA62680125C2EBC2020AEBC20320468A
:101020002A46002183F8355003B0BDE8F04FFFF7A2
:10103000ADBCB9F1FF3F09D00D4A90420CD0781BEE
:101040000AEBC00049461C3000F07AFA032EA8D102
:10105000B8F1FF3FB9D1A4E7019B002BEFD01A7C78
:10106000484642F080021A74034900F0C7FAEDE7DF
:1010700000000140907900006C7C000084030010A7
:101080002DE9F0470F46054608466149164600F02F
:10109000F5FA60490446304600F0F0FA0146204671
:1010A00000F0CCFA411C044600F0AB805A4B28609B
:1010B000984200F0838053D9584B984276D003F57C
:1010C0008043984206D1564BD3F8C42042F00072B8
:1010D000C3F8C4204FF0010984F808902B684FF042
:1010E0000008C3F8048028464FF41651FFF74EFD60
:1010F00042464B4628460821FFF76AFE38464449D7
:1011000000F07CFA3046434900F078FA7A1C03D0AC
:101110003846414600F070FB731C03D03046002176
:1011200000F06AFB3C4B9C4250D025D93B4B9C4283
:1011300064D003F580439C424BD103236B60394953
:10114000C3EBC3034FF0FF34284601EBC30522462F
:1011500023466C60EC610021BDE8F047FFF7FABE62
:10116000A3F580439842B5D12D4BD3F8C42042F06B
:101170000802C3F8C420ADE7A3F580439C4228D100
:10118000284E4FF0FF34002169602246234628464E
:101190007460F461FFF7DEFE234B012429461C60D6
:1011A00022480822BDE8F04701F0B0B81C4BD3F844
:1011B000C42042F08072C3F8C4208BE7184BD3F8E8
:1011C000C42042F01002C3F8C42083E701236B60FF
:1011D000B5E76B681349C3EBC3034FF0FF3601EB70
:1011E000C30732463346284600217E60FE61FFF782
:1011F000B1FE0F4B9C42CFD0BDE8F08702236B605D
:101200009DE70C480C495C2200F070F92C6061E706
:10121000007C0000C479000000000140008009400B
:1012200000C00F40840300107C0300107C040010F9
:1012300000C00040F07B00004C7A000038B500236D
:10124000036043600A7804462F2A01D0204638BD47
:101250004A78002AFAD0481C20604A782F2A14D0F5
:10126000B2B18D1C194600E052B125602A782B4698
:101270002F2A01F1010105F10105F5D101332360A8
:1012800000F09AFB6060204638BD19460346F5E73A
:101290001146F5E70068704710B50446406828B16C
:1012A00000F0A8FB012801D1606810BD002010BD2E
:1012B000406808B528B100F09DFBD0F1010038BFAF
:1012C000002008BD10B50446406830B100F092FB24
:1012D00018B9606808B1043810BD002010BD00BF07
:1012E0004068003018BF0120704700BFC1EBC1014A
:1012F00000EB81000C3000F0C9BB00BFF8B5104B0B
:101300000025044680E828000E46856029460C30FA
:10131000174600F0B5FB294604F1280000F0B0FBA9
:10132000251D4FF4165331463A4663642846FFF7AD
:10133000A7FE284622460349FFF786FD2046F8BD52
:10134000987C0000ED12000038B504460D460430CC
:10135000FFF71CFC656438BD0430FFF7A1BD00BF7A
:101360000430FFF781BD00BF10B504300C46FFF715
:10137000D7FD204610BD00BF00207047F8B58E187D
:10138000B1420F4605460FD00C4601E0A64209D0F7
:101390002B6828465B6A14F8011B98470130F5D189
:1013A000E01BF8BDF01BF8BD0020F8BDF8B58E18A5
:1013B000B1420F4605460FD00C4603E004F8010B7E
:1013C000A64207D02B6828469B6A9847431CF5D154
:1013D000E01BF8BDF01BF8BD0020F8BD00207047F1
:1013E00000207047002070470020704710B5074B61
:1013F000044603F108023C3380E80C00406900F029
:10140000FBFB204600F0F8FA204610BDA07C00004F
:10141000A0F10400FFF7EABF10B50446FFF7E6FFAE
:10142000204600F068FB204610BD00BFA0F104007C
:10143000FFF7F2BF10B584B0044600F00DFB0B4B74
:10144000002203F108013C3384E80A00626101A82C
:101450002246074902F0F0FA064901A800F0B4FD5F
:101460006061FFF739FA204604B010BDA07C00008F
:1014700080790000E87C000038B50D4604464069DC
:1014800000F070FC28466169BDE8384000F0DCBD22
:1014900010B50446406900F065FC6069BDE8104085
:1014A000FFF71EBAFFF75CBFA0F14800FFF7FABFD5
:1014B000FFF75ABFA0F14800FFF7FABF38B504465E
:1014C0001D46FFF71BFF294604F14800FFF7B2FF56
:1014D000054B204603F1080103F12002543321603B
:1014E000A264E36438BD00BFF07C000010B5084B77
:1014F0000446186882B00B46C0680649009222462E
:1015000000F06CFD02B0BDE81040FEF7B3BF00BFB5
:1015100034010010507D00000FB400B5064A83B0BE
:1015200004AB126853F8041BD0681A46019301F00B
:10153000CBF8012000F0FAFA3401001000F0C4B832
:1015400038B50D46044600F0F1F8013509D02046C3
:10155000002100F007F920460321BDE8384000F0E3
:10156000FDB838BD38B50D46044600F0DFF801354A
:101570000FD0236801330DD02369626820461A60BA
:10158000012100F0EFF820460221BDE8384000F0CC
:10159000E5B838BD024803492422FFF7A7FFEBE76F
:1015A000B4780000CC78000070B50D4616460446AD
:1015B00000F0BCF8013514D02368013312D066B9AD
:1015C000236962681A602046012100F0CBF82046AA
:1015D0000221BDE8704000F0C1B8E36862681A609B
:1015E000F1E770BD034804492422FFF77FFF002E76
:1015F000E6D0F2E7B4780000CC780000431C10B5C8
:10160000044618D00B68581C04D10FE051F80C3F69
:101610005A1C0BD09C42F9D12046896800F0C4F8CE
:1016200020460221BDE8104000F0E6B80248BDE8BF
:101630001040FFF771BF10BD847D0000884208B5DF
:101640000AD0431C07D0013106D00448FFF764FFDD
:101650004FF0FF3008BD084608BD00BF987D000070
:101660000B685A1C04D107E051F80C3F5A1C03D0F8
:101670008342F9D1486870471846704708B5431C43
:101680000CD00B685A1C04D109E051F80C3F5A1CCD
:1016900005D09842F9D14868411C00D008BD0348E4
:1016A000FFF73AFF4FF0FF30F8E700BFAC7D0000D6
:1016B00030B585B018246D4620462946ABBE044699
:1016C000204605B030BD00BF024B186800F0010095
:1016D000704700BFF0ED00E038B5054600F0FCF8BB
:1016E000044600F0F9F8001BA842FAD338BD00BF49
:1016F0004FF47A7303FB00F0FFF7EEBF431C10B505
:10170000044608D02046002100F04EF804F01F04E3
:101710000120A04010BD034803491522FFF7E6FE53
:10172000F0E700BFEC7D0000007E000038B5044605
:101730004B1C0D4621600FD00846FFF7DFFF25F058
:101740001F0505F1180105F11C0205F11403606085
:10175000A560E1602261636138BD00BF006800F0F0
:101760004BB800BF38B50368044601330D4610D0AE
:1017700045B1012D05D1A368626819680A431A6052
:1017800038BD38BDA36861681A6822EA01021A6090
:1017900038BD034803492C22FFF7A8FEE8E700BF45
:1017A000B4780000007E000038B5431C04460D46A6
:1017B00017D004F16040A0F51C2000F00F035B007F
:1017C00003229A409D4003099B0003F1804303F5E7
:1017D0003033196821EA02021A601A6815431D6045
:1017E00038BD034803491522FFF780FEE1E700BF3B
:1017F000EC7D0000687E000038B5431C04460D46B1
:101800002CD004F16040A0F51C2000F01F04C5F3AB
:10181000800202FA04F443099B0003F1804303F5BC
:101820003033996E21EA04019966996E0C439C66E7
:101830009AB900F00F035B0003229A4005FA03F304
:101840000009800000F1804000F53030016C21EA91
:1018500002020264026C1343036438BD0248034968
:101860002022FFF743FECCE7EC7D0000687E0000FD
:10187000134A38B513680BBB12490124D1F8C45080
:101880001460114A114845F40005C1F8C4501367AB
:10189000036801F1437101F5F45103319B08A1FB89
:1018A00003039B0C013B022151600420D3600849D3
:1018B0005460FEF765FD074B10221A6038BD00BF6B
:1018C0006404001000C00F4000400940CC0000102C
:1018D000A51A000000E100E008B5044B1B680BB935
:1018E000FFF7C6FF024B986808BD00BF64040010F4
:1018F00000400940034B98615A6942F001025A6165
:10190000704700BF00400940024B5A6922F00102B3
:101910005A61704700400940014B01221A6070472C
:1019200000400940094A8368026053B1084B1A68B5
:10193000824201D106E01A4653688342FBD14368D4
:101940005360704742681A60704700BFD87E00003D
:10195000680400100C4A836810B50446026053B155
:101960000A4B1A68904201D10AE01A4653689C4219
:10197000FBD163685360204600F0BDF8204610BDDF
:1019800042681A60F7E700BFD87E000068040010C4
:10199000074B10B400240273816080E8180019B16D
:1019A000044B1A68186042605DF8044B704700BF32
:1019B000D87E0000680400100D4B70B51C68064608
:1019C0000D4614B912E0646884B1A36831462A4612
:1019D0001846002BF7D002F0D4F80028F3D1A06805
:1019E00002F0C7F8A842EED1204670BD002070BDBD
:1019F00068040010007B704710B5074B044603F1E4
:101A000008023433226040F8043FFFF78BFF204682
:101A1000FEF7D0FD204610BDE07E0000A0F10400DE
:101A2000FFF7EABF094B10B503F10802044634334F
:101A3000226040F8043FFFF775FF2046FEF7BAFD2D
:101A4000204600F058F8204610BD00BFE07E0000A0
:101A5000A0F10400FFF7E6BF074B10B500220446D3
:101A600040F8043BFFF794FF044B204603F10802C3
:101A7000343384E80C0010BD58790000E07E00008B
:101A8000002280E806008261704700BF08B5036845
:101A900001460BB1984708BD406810B18B69083109
:101AA000984708BD70B5FFF737FF0E4C0E4E236800
:101AB00073B11D68FFF710FF281A00280CDC21689D
:101AC00032688B682360002AF2D048689047EEE7BE
:101AD000BDE87040FFF718BF2368BDE87040186884
:101AE000FFF708BF6C04001070040010034608469E
:101AF000194600F007B800F0F3BB0028B8BF404219
:101B00007047000038B5054604480C46134620B11E
:101B1000022029462246AFF3008038BD00000000B5
:101B2000014B1868704700BF3401001008B5074B1F
:101B3000044613B10021AFF30080054B1868836A97
:101B400003B198472046FEF7AFFE00BF000000003B
:101B5000847F000070B505460C4609B9002070BDB1
:101B600018B183690BB900F083F9204B9C4201D175
:101B70006C6808E01E4B9C4201D1AC6803E01D4B31
:101B80009C4208BFEC68B4F90C30002BE6D0284624
:101B9000214600F039F8236B064633B12846216A06
:101BA00098470028B8BF4FF0FF36A3891B0603D51E
:101BB0002846216900F0BEFB616B41B104F144038A
:101BC000994202D0284600F0B5FB00236363A16C64
:101BD00021B1284600F0AEFB0023A36400F0B2F967
:101BE0000023A38100F0AFF9304670BD207F0000D4
:101BF000407F0000607F0000024B01461868FFF73D
:101C0000A9BF00BF340100108A892DE9F0410546C3
:101C100010070C4657D44B68002B02DC0B6C002BD2
:101C200018DDE66AB6B102F48052002392B22F6842
:101C30002B600AB1626D10E0216A28460123B0478B
:101C4000411C024609D12B683BB11D2B01D0162B3C
:101C500046D12F600020BDE8F081A3895B0705D540
:101C60006368D21A636B0BB1236CD21AE66A002345
:101C70002846216AB047461CA38905D12A681AB1B3
:101C80001D2A01D0162A19D1002262602269D904C6
:101C9000226004D5421C01D12B6803B96065616BD9
:101CA0002F600029D6D004F14403994202D028467F
:101CB00000F040FB00206063BDE8F08143F040038A
:101CC000A381BDE8F0810F69002FC3D093070E6890
:101CD0000CBF4B690023C7EB06080F608B6012E056
:101CE000A3894FF0FF3043F04003A381BDE8F081AA
:101CF0002846216A3A464346A66AB0470028EFDDE7
:101D00000744C0EB0808B8F1000FF1DCA2E70000BF
:101D100038B50B6905460C46DBB118B183690BB9C0
:101D200000F0A6F80C4B9C4201D16C6808E00B4B0C
:101D30009C4201D1AC6803E0094B9C4208BFEC68AF
:101D4000B4F90C302BB128462146BDE83840FFF7E6
:101D50005BBF002038BD00BF207F0000407F000037
:101D6000607F0000014620B9044B0549186800F067
:101D70001FBA044B1868FFF7CBBF00BF847F000079
:101D8000111D00003401001038B50C46054618B18D
:101D900083690BB900F06CF80E4B9C4201D16C6862
:101DA00008E00D4B9C4201D1AC6803E00B4B9C4218
:101DB00008BFEC686368013B002B636005DA2846C6
:101DC0002146BDE8384001F00DBD23685A1C226051
:101DD000187838BD207F0000407F0000607F000041
:101DE000024B01461868FFF7CFBF00BF3401001057
:101DF000014900F0DDB900BF111D000010B5044617
:101E0000002303604360836081814366C281036174
:101E10004361836119465C30082200F082FA054B69
:101E200024626362044BA362044BE362044B2363AA
:101E300010BD00BFD53A0000FB3A0000333B000064
:101E4000573B000070B568234D1E5D430E4605F1FB
:101E5000740100F0B3FA044640B1002180E842006A
:101E60000C30A06005F1680200F05BFA204670BDFE
:101E7000836910B5044633BB8364C3640365124BA6
:101E8000124A1B688262984204BF0123836100F0FA
:101E90001FF86060204600F01BF8A060204600F0AC
:101EA00017F80421E06000226068FFF7A7FFA06830
:101EB00009210122FFF7A2FFE06812210222FFF7A9
:101EC0009DFF0123A36110BD847F0000F11D000070
:101ED000F8B51B4B07461E68B36913B93046FFF7C8
:101EE000C7FF4836B4687368013B04D4B4F90C509A
:101EF00075B16834F8E733682BB938460421FFF729
:101F0000A1FF306008B13668ECE70C233B60F8BDF8
:101F10004FF6FF73E3810123A38165662560A56009
:101F2000656025616561A56104F15C0029460822B0
:101F300000F0F7F96563A563A564E5642046F8BD84
:101F4000847F000070477047F7B50F46114601AA1D
:101F5000054603F0E9FC064608B9002029E02846BA
:101F6000FFF7B6FF04460028F7D028463946019A05
:101F70004FF4DB7301F058FB002806DA0025FFF769
:101F8000E1FFA581FFF7DFFFE7E70B4BE08163622D
:101F90000A4BA681A3620A4B2462E362094B2363C6
:101FA000F30505D5284621460022022300F056F805
:101FB000204603B0F0BD00BFD53A0000FB3A000058
:101FC000333B0000573B000003460A4602490868BD
:101FD0001946FFF7B9BF00BF340100100EB403B5B6
:101FE000014603AB054853F8042B0068019300F049
:101FF00063FA02B05DF804EB03B0704734010010DF
:1020000070B50E461446054618B183690BB9FFF743
:102010002FFF0A4B9C4201D16C6808E0084B9C42A0
:1020200001D1AC6803E0074B9C4208BFEC6828462E
:1020300031462246BDE8704001F008BB207F000019
:10204000407F0000607F000003460A46024908689E
:102050001946FFF7D5BF00BF3401001000F000B8EB
:102060002DE9F8430C4690461E46054618B1836993
:102070000BB9FFF7FDFE3D4B9C4201D16C6808E0B7
:102080003B4B9C4201D1AC6803E03A4B9C4208BFF9
:10209000EC68A38903F48473B3F5847F03D12846E5
:1020A0002146FFF735FEE76A0FB91D232BE0012E0D
:1020B00004D0022E2BD056B3162324E02846214606
:1020C000FFF726FEA28902F4805292B20AB1606D37
:1020D00005E0216A28463346B847411C14D0A3893D
:1020E0005A0706D56368C01A636B4BB1236CC01ADC
:1020F00006E01B0704D5236813B122699B1A184414
:102100008044002603E02B604FF0FF392BE0236969
:102110001BB92846214600F08FF828462146FFF7D4
:10212000F7FD81460028EFD12846216A4246334612
:10213000B8470130E8D0616B41B104F144039942E2
:1021400002D0284600F0F6F80023636323690021DB
:102150002360A389616023F40263A38104F15C001E
:10216000082200F0DEF84846BDE8F883207F000032
:10217000407F0000607F00002DE9F041884600F1BB
:10218000480400268CB1A5686768013F0BD4AB8971
:10219000012B06D9B5F90E30013302D02846C047CD
:1021A00006436835F1E72468ECE73046BDE8F08186
:1021B0002DE9F8438046894600F14804002694B191
:1021C000A5686768013F0CD4AB89012B07D9B5F925
:1021D0000E30013303D040462946C84706436835D0
:1021E000F0E72468EBE73046BDE8F8830E4B70B5A6
:1021F0001E460E4C0025E41AA410A54204D056F841
:10220000253098470135F8E705F048FB084B094CA5
:102210001E46E41AA4100025A54204D056F8253025
:1022200098470135F8E770BD740100107401001083
:10223000740100107C010010F0B58B8991B09D07EE
:1022400006460C4625D4B1F90E10002908DAA389F8
:10225000002513F0800F14BF40274FF480670DE076
:1022600001AA03F099FB0028F1DB029D4FF480677F
:1022700005F47045A5F500514D424D4130463946B3
:1022800000F09CF860B9A3899A051DD443F00203BD
:10229000A38104F14703236023610123636113E0F9
:1022A0000A4BB362A389206043F08003A3812061BD
:1022B00067614DB13046B4F90E1003F08BFE18B1D2
:1022C000A38943F00103A38111B0F0BDF11D00000B
:1022D000024B0146186800F071B800BF34010010CD
:1022E000024B0146186800F025B800BF3401001009
:1022F00010B5C9B202449042034605D01C780130A3
:102300008C42F8D1184610BD002010BD10B5431EF8
:102310000A44914204D011F8014B03F8014FF8E749
:1023200010BD03460244934202D003F8011BFAE7B2
:102330007047000030B500293CD051F8042C0B1F29
:102340001D49002AB8BF9B180A680C4612B95A608A
:102350000B6030BD93420DD219685818904201BFEE
:102360005A5852181A60426823605A6030BD994228
:1023700003D80A4651680029F9D1146815199D42FD
:102380000AD11B682344D0188842136012D1086810
:10239000034413604B680CE002D90C23036030BD8A
:1023A0001C681819884201BF08684968001918603C
:1023B0005960536030BD00BF7804001070B5CC1C6C
:1023C00024F0030408340C2C38BF0C24002C0646DF
:1023D00003DA0C233360002070BD8C42F9D3204A0D
:1023E000136810461946A1B10A68121B0ED40B2AB5
:1023F00003D90A608B188C501FE08B420BBF5A68C0
:102400004A6802605A6018BF0B4616E00B464968DE
:10241000E9E7144D2B681BB9304601F037FA286004
:102420003046214601F032FA421C0346D1D0C51C89
:1024300025F0030585420AD11C6003F10B001A1D2B
:1024400020F00700821A0AD05142995070BD3046E0
:10245000E91A01F01BFA0130BBD02B46ECE770BD46
:102460007804001074040010936810B5013B002B31
:10247000936009DA9469A34202DBCBB20A2B03D141
:10248000BDE8104002F028BB1368581C106019709A
:10249000C8B210BDF8B506460F461446D518AC4272
:1024A00008D0304614F8011B3A46FFF7DDFF431C05
:1024B000F5D100E00020F8BD2DE9F0439DB00D46B8
:1024C00090460393064618B183690BB9FFF7D0FC19
:1024D000754B9D4201D1756808E0744B9D4201D156
:1024E000B56803E0724B9D4208BFF568AB891C07D5
:1024F0000AD52B6943B10023099320238DF8293095
:1025000030238DF82A3041E03046294602F04AFB5C
:102510000028F0D04FF0FF30C2E0039A0134111DC3
:1025200012680391002ABBBF524243F00203079294
:102530000792B8BF049323782E2B7BD0DFF88081DD
:10254000217840460322FFF7D3FE38B1049AC8EB46
:1025500000004023834013430493013421785548FD
:10256000062204F101088DF82810FFF7C1FE0028AB
:1025700000F08580504B002B78D1039B073323F06C
:10258000070308330393099B3B44099343461C46C6
:1025900013F8012B1AB9B4EB08090ED002E0252A72
:1025A000F5D1F8E73046294642464B46FFF772FF21
:1025B000013070D0099B4B4409932378002B6AD0DB
:1025C00000234FF0FF3204930793059206938DF892
:1025D00053301A9304F101084446DFF8E89021785B
:1025E00048460522FFF784FE08F10108049B30B13C
:1025F000C9EB00000122824013430493ECE7D806A4
:1026000044BF20228DF85320190744BF2B228DF898
:10261000532022782A2A80D0234607991C46227804
:102620000133303A092A03D80A2000FB0121F5E7DB
:10263000079180E763782A2B0AD1039B02341A1D85
:102640001B680392002BB8BF4FF0FF33059375E76B
:10265000611C00220C4623780131303B092B03D842
:102660000A2000FB0232F5E7059267E703AB00930F
:10267000304604A92A46114B00F0C4F807E003AB2A
:102680000093304604A92A460C4B00F077FB421C0D
:1026900007467FF478AFAB895B063FF53BAF0998FF
:1026A0001DB0BDE8F08300BF207F0000407F000028
:1026B000607F0000927F0000052800009524000044
:1026C0008E7F0000887F000030B505460C4613461B
:1026D000034A294610682246BDE83040FFF7ECBEA9
:1026E000340100102DE9F0471E4688B0149F002BDE
:1026F000B8BF06F10043129927F02007B6BF1E4667
:1027000000232D23462F1446109DDDF84CA00B709E
:1027100003D0452F03D1013501E0032300E002235C
:102720008DE8280406AB039307AB04932246334697
:1027300002F03EFB472F804602D1119BDB0726D5D6
:10274000462F08EB050911D198F80030302B0AD13B
:10275000204631460022002304F0D6FF18B9C5F107
:102760000105CAF80050DAF8003099442046314695
:102770000022002304F0C8FF08B1CDF81C90079B8D
:102780004B4504D25A1C079230221A70F7E7404694
:10279000079B159AC8EB0303136008B0BDE8F087E8
:1027A000034673B50029B8BF494203F8022BB4BFF2
:1027B0002D222B22092942701ADD0DF1070426462D
:1027C0000A2291FBF2F502FB1511092D01F13001EE
:1027D00004F8011D2946F3DC3031651E04F8011CA4
:1027E000B5421A460AD215F8012B03F8012BF7E778
:1027F0001A463024214402F8024B5970101A02B0D4
:1028000070BD00002DE9F04F91B08B4615461E4675
:102810001A9F044603F0EEFBD0F800A0504601F0EA
:10282000A8F900230E933B680990073323F00703B0
:1028300003F108029BF818803A60D3E90023CBE942
:102840001223DBE9120100F0F9FF0128DBE9120194
:1028500019D10022002304F061FF10B12D238BF861
:102860004330A04BA04FB8F1470F88BF1F4603234A
:10287000CBF81030DBF8003023F00403CBF8003045
:102880004FF00009A1E000F0D9FFDBF8003048B9B3
:10289000964A974FB8F1470F88BF17460322CBF8E7
:1028A0001020E9E7DBF80420DBE91201571CCDE931
:1028B0000A0101D1062209E0B8F1670F02D0B8F190
:1028C000470F05D1002A40F0C7810122CBF8042030
:1028D000DBF8042043F480638DE80C00CBF8003073
:1028E0000DF1330302930DAB03930EAB059300235D
:1028F0000693CDF81080DDE90A232046FFF7F2FEAB
:1029000008F0DF03472B07460AD10D9BD81C03DBD9
:10291000DBF80420934237DDA8F102085FFA88F85B
:10292000B8F1650F0D9915D8013942460BF15000E9
:102930000D91FFF735FF0E9A81468318012ACBF8D7
:10294000103003DCDBF80020D10738D50133CBF899
:10295000103034E0B8F1660F18D10029DBF80430EC
:1029600009DDCBF810101BB9DBF80020D20721D508
:1029700001330B441CE01BB9DBF80020D00701D564
:10298000023315E0012313E04FF067080D9B0E9A08
:10299000934207DBDBF80020CBF81030D10709D5D4
:1029A000013305E0002BD4BFC3F10203012313441C
:1029B000CBF810300D9B4FF00009CBF858309DF844
:1029C000333013B12D238BF84330009620465946FF
:1029D0000FAA2B4600F05CF9013002D14FF0FF3016
:1029E00052E1DBF800305A0505D4204629463A4624
:1029F000DBF8103008E1B8F1650F40F2D080DBE978
:102A000012010022002304F07FFE50B32046294625
:102A1000384A0123B0470130E0D00E9B0D9A9A420C
:102A200009DBDBF80030D80705D4DBF800309F075E
:102A300000F1108107E1204629465246099BB04724
:102A40000130CBD000270E9B013B9F42EDDA2046A0
:102A500029460BF11A020123B0470130BED00137DD
:102A6000F1E70D9B002B29DC20462946214A012352
:102A7000B0470130B2D00D9B2BB90E9B1BB9DBF8D0
:102A80000030D907D1D5204629465246099BB04788
:102A90000130A3D04FF000080D9B20465B429845C3
:102AA000294608DA0BF11A020123B047013095D00C
:102AB00008F10108F0E73A460E9BA5E0DBF8582044
:102AC0000E9B9A42A8BF1A46002A914602DC4FF09C
:102AD00000081CE0204629463A464B46B0470130E4
:102AE000F5D17BE79D7F0000997F0000A57F000066
:102AF000A17F0000F27F0000204629460BF11A0258
:102B00000123B04701303FF469AF08F10108DBF859
:102B10005830B9F1000FB4BF1A46C9EB0302904513
:102B2000EADB07EB03080D9A0E9B9A4210DBDBF8F9
:102B30000030DA070CD40E9A1744C8EB07030D9F38
:102B4000D21B9342A8BF1346002B1F4608DC0EE0A1
:102B5000204629465246099BB0470130EBD13DE75C
:102B6000204629464246B04701303FF437AF4FF088
:102B700000080AE0204629460BF11A020123B0475B
:102B800001303FF42BAF08F101080D9A0E9B002F86
:102B9000A3EB0203A8BFDB1B9845EBDB45E70E9ACE
:102BA000012A01DCDB0736D5204629463A460123B7
:102BB000B04701303FF412AF204629465246099BE8
:102BC000B04701303FF40AAFDBE9120100220023D5
:102BD00004F09AFDE8B90E9B204629467A1C013B79
:102BE0001DE0204629460BF11A020123B0470130AF
:102BF0003FF4F4AE01370E9B013B9F42F1DB2046D0
:102C000029464B460BF15002B04701307FF40DAF1F
:102C1000E4E60027EFE7204629463A460123B0477D
:102C20000130ECD1DAE6204629460BF119020123E6
:102C3000B04701303FF4D2AE0137DBF80C300F9AC9
:102C40009B1A9F42EFDBDBF80C000F9B9842B8BF4A
:102C5000184619E00027F0E743F480638DE80C0084
:102C6000CBF800300DF1330302930DAB03930EABA1
:102C7000059300230693CDF810802046DDE90A2352
:102C8000FFF730FD074640E611B0BDE8F08F00BF0A
:102C90002DE9F84391461F468A680B690646934220
:102CA000B8BF1346C9F8003091F843200C46DDF850
:102CB000208012B10133C9F800302368990642BF61
:102CC000D9F800300233C9F80030256815F0060540
:102CD0001CD094F843302268003318BF01239206B9
:102CE0001FD5E118302081F843005A1C94F8451094
:102CF0002244023382F8431013E03046394604F18F
:102D000019020123C047013007D00135E368D9F823
:102D100000209B1A9D42F0DBDBE74FF0FF30BDE85F
:102D2000F8833046394604F14302C0470130F4D0FD
:102D30002268D9F80050E36802F00602042A08BFAE
:102D40005D1B2269A3680CBF25EAE5750025934247
:102D5000C4BF9B1AED184FF00009A9450ADA3046A6
:102D6000394604F11A020123C0470130D5D009F1D8
:102D70000109F2E70020BDE8F88300002DE9FF41DA
:102D80000C461746227E98466E2A06460A9B01F19B
:102D9000430100F0B08012D8632A23D00AD8002A59
:102DA00000F0BD80582A40F0CC8084F84520DFF840
:102DB00004E257E0642A1ED0692A1CD0C1E0732ABD
:102DC00000F0B18009D86F2A2ED0702A40F0B98067
:102DD000226842F0200222603FE0752A24D0782A3F
:102DE0003BD0AEE01A6804F14205111D196013686A
:102DF00084F84230A9E020681A6810F0800F02D0F1
:102E0000101D186008E010F0400F02F10400186077
:102E100002D0B2F9003000E01368002B3EDA2D2218
:102E20005B4284F8432039E020681A6810F0800F74
:102E300002D0101D186007E010F0400F02F10400EE
:102E4000186001D0138800E01368227EDFF864E187
:102E50006F2A0CBF08220A221CE07822DFF858E112
:102E600084F845202268186812F0800F00F10405EC
:102E70001D6003D1550601D5038800E00368D00723
:102E800044BF42F0200222601BB9226822F02002D7
:102E900022601022002084F8430002E0DFF814E1F1
:102EA0000A226568002DA8BF2068A560A4BF20F095
:102EB0000400206003B965B10D46B3FBF2F002FBDC
:102EC00010331EF8033005F8013D03460028F4D105
:102ED00000E00D46082A0BD12368DA0708D52369DC
:102EE00062689A42DEBF302305F8013C05F1FF35E8
:102EF000491B21612EE025681A6815F0800F606972
:102F000003D0151D1D60136808E015F0400F02F195
:102F100004051D60136801D0188000E018600023CC
:102F200023610D4616E01A68111D1960156800210D
:102F300028466268FFF7DCF908B1401B60606368EF
:102F400004E004F1420584F84220012323610023B8
:102F500084F84330CDF800803046214603AA3B4632
:102F6000FFF796FE013002D14FF0FF301FE03046F0
:102F700039462A462369C0470130F5D023689B07AC
:102F800005D4E068039B9842B8BF18460FE00025BF
:102F9000E368039A9B1A9D42F3DA3046394604F1FE
:102FA00019020123C0470130DED00135F0E704B03B
:102FB000BDE8F081A97F0000BA7F00002DE9F04F45
:102FC00099468B6815465A1EB2F5AE7F82BF6FF4E4
:102FD000AE7203EB020C40F25D130F4688BF8B60AC
:102FE0000B684FF0000B43F4F06347F81C3B0646B8
:102FF0000C46B8465A46DA4687B098BF4FF0000CE8
:10300000CDF80CB0CDF808B0CDF804B0A168002917
:1030100000F0EC802B681B78492B70D016D8392B28
:103020000DD8312B40D22D2B46D002D82B2B43D09C
:10303000DCE02E2B00F09280302B23D0D6E0452B05
:1030400000F09580462B77D0412B0CE0652B00F0EB
:103050008E800AD8542B75D002D84E2B34D0C5E0C0
:10306000592B75D0612B46D0C0E06E2B2CD004D8E4
:10307000662B61D0692B42D0B8E0742B62D0792BDB
:1030800066D0B3E0206810F4807F0DD020F080007F
:1030900020600AF1010ABCF1000F00F08A800131C2
:1030A0000CF1FF3CA16084E012EB0B0F40F09E801E
:1030B000216821F4C07105E02168080640F196807E
:1030C00021F08001216070E06AB9BAF1000F0CD1E3
:1030D000216801F4E060B0F5E06F06D121F4F06101
:1030E0002160012261E0022A5ED0BBF1010F1ED0F7
:1030F000BBF1040F1AE0012A78D1022255E0BBF19E
:10310000000F0ED1BAF1000F73D1216801F4E06015
:10311000B0F5E06F71D121F4F06121604FF0010B47
:1031200043E0BBF1030F02D0BBF1050F5ED10BF101
:10313000010B5FFA8BFB38E0BBF1020F56D14FF069
:10314000030B32E0BBF1060F50D14FF0070B2CE020
:10315000BBF1070F4AD14FF0080B26E02168880524
:1031600044D521F420712160CDF804A01DE0216830
:1031700001F4A060B0F5806F04D0480536D5BAF1EF
:10318000000F3AD0880558BF019821F4F06158BF6C
:10319000C0EB0A0041F4C0715CBF0290CDF80C8016
:1031A00021604FF0000A00E0032288F8003008F1A7
:1031B0000108A368013BA3602369013323616B68A5
:1031C000013B002B6B6003DD2B6801332B601DE797
:1031D000D4F88031304629460592CDF810C0984782
:1031E000DDF810C0059A00283FF410AFBAF1000FC7
:1031F00003D0236823F480732360013A012A0ED898
:10320000B8450AD9D4F87C31304618F8011D2A4651
:1032100098472369013B2361F2E70125AEE00BF1FA
:10322000FF33062B22D8BBF1020F12D9ABF1030BEF
:103230005FFA8BFBCBEB080BD84517D0D4F87C3169
:10324000304618F8011D2A4698472369013B23613F
:10325000F2E7B845E1D9D4F87C31304618F8011DC1
:103260002A4698472369013B2361F2E72368DA0580
:103270002CD55B050CD5B845CFD9D4F87C31304678
:1032800018F8011D2A4698472369013B2361F2E79C
:1032900018F8011C2369652903F1FF3308F1FF3B8E
:1032A00023610DD045290BD0D4F87C3130462A4615
:1032B0009847236918F8021C013BA8F1020B23610F
:1032C000D4F87C3130462A469847D846256815F010
:1032D000100552D188F80050236803F4C063B3F599
:1032E000806F05D1019BC3EB0A035A426BB916E00C
:1032F000029BA3B1039B2A46591C30460A2301F0C6
:10330000AFFA029BDDF80C80C21A04F26F139845E5
:1033100028BF04F5B77840461A4900F08DFB3046C7
:103320003946002200F07CFC2268064612F0020FAB
:103330000F46D9F8003003D01A1DC9F8002006E066
:1033400012F0040F03F10402C9F8002003D01B6837
:10335000C3E900670DE0D3F8008000F06FFA10B900
:1033600000F066FB03E03046394604F047FAC8F83F
:103370000000E3680133E36000E00025284607B061
:10338000BDE8F08FCB7F00002DE9F04115468A683B
:1033900080460C4632B98A69002A0CBF01224FF0E0
:1033A000FF328A6022680026D1065FBF1A68111DAD
:1033B00019601768A069F8B923680136DA065EBF9C
:1033C0002B681B783B702A686B6802F101022A6047
:1033D000A26803F1FF3302F1FF326B6058BF01377F
:1033E000A260EAB1002BE5DCD4F8803140462946E2
:1033F00098470028DED013E0012807D12B686269C6
:103400001B78D35C002BD7D1C6B109E0022807D1C5
:103410002B680B4A1B78126813445B781B07CBD5CB
:10342000236813F0100305D1E2680132E260A2695B
:1034300002B13B70236900201E442661BDE8F08183
:10344000380100102DE9F04F0C469A46724B87B0B8
:103450008346164693E8070003AB83E807006F4BEB
:10346000A1696F4A04F11C09032918BF1A46A36811
:1034700000925A1EB2F5AE7F82BF6FF4AE7503EBB9
:10348000050840F25D134F4688BFA360236898BFCC
:103490004FF0000843F4506323600023326803A90F
:1034A00051F82300117802220193FEF721FF019BBE
:1034B000002835D0012B0BD162682AB9082262603E
:1034C000226842F400722260226822F4A0620BE0BB
:1034D000022B0AD1226802F4C061B1F5007F1FD12E
:1034E0001021616042F480722260A268511EA160C6
:1034F000B2B132687D1C511C316012783A7072682A
:10350000013A002A72600ADCD4F88021584631461C
:1035100001939047002841D12F46019B00E02F46A0
:103520000133032BBAD163680BB90A236360636864
:103530003C496069C91A00F0B9F93D460027A36803
:103540006BB3316860690A78805C40B3302A2268C6
:103550000AD1100508D50137B8F1000F0BD001339F
:1035600008F1FF38A36006E022F4106222600B78B5
:10357000013505F8013C7368013B002B736003DDE6
:1035800033680133336005E0D4F880315846314662
:10359000984720B9A368013BA360D0E700272368C0
:1035A000D9050DD54D4509D915F8011C05F1FF3890
:1035B000D4F87C3158463246984745464D4527D089
:1035C000226812F010021BD12A70636858464946DF
:1035D000009EB0472268DAF8003012F0200F07D1C1
:1035E000D20705D51A1DCAF800201B68188004E010
:1035F0001A1DCAF800201B681860E3680133E360F5
:10360000C9EB05053D44276900203D44256100E0E4
:10361000012007B0BDE8F08FD07F00006D490000A9
:1036200061480000EC7F000038B5074C05460020DB
:103630002060084611461A46FCF7F8FF431C02D1E9
:10364000236803B12B6038BD8404001070B50E46AA
:103650001446054618B183690BB9FEF709FC164BF1
:103660009C4201D16C6808E0144B9C4201D1AC68CB
:1036700003E0134B9C4208BFEC68A368013B002B9E
:10368000A36011DAA269934207DB23681E702368E6
:1036900019780A290BD1284601E0284631462246EE
:1036A000BDE8704001F018BA23681E7023685A1CE8
:1036B0002260187870BD00BF207F0000407F0000AE
:1036C000607F0000838903F00903092B01D1FEF715
:1036D00049BB002070470000F8B50C46054618B1FC
:1036E00083690BB9FEF7C4FB394B9C4201D16C686E
:1036F00008E0384B9C4201D1AC6803E0364B9C4259
:1037000008BFEC68A2890023636093B29E065AD476
:1037100058071AD4D90605D4092342F040022B6079
:10372000A28150E01A070BD528462146FEF7F0FA91
:10373000002848D1A389A06023F00803A381A061D9
:10374000A38943F00403A38110E0616B71B104F11C
:103750004403994202D02846FEF7ECFD236C00207A
:103760006063636013B1E36B2360F8BD23691BB929
:1037700028462146FEF760FDA789BEB2B3070FD0E9
:103780000123A381154B1649186806F00906FEF7B8
:10379000F3FC092EA78103D128462146FEF734FA0F
:1037A0002269666A22602846216A6369B047002858
:1037B00060600BDCA38917BF002243F0200343F0B5
:1037C00040036260A3814FF0FF30F8BD0020F8BDD8
:1037D000207F0000407F0000607F0000847F0000A9
:1037E000C536000038B50C46054618B183690BB9DB
:1037F000FEF73EFB0E4B9C4201D16C6808E00D4B7E
:103800009C4201D1AC6803E00B4B9C4208BFEC68C2
:1038100028462146FFF760FF38B96368013B6360C3
:1038200023685A1C2260187838BD4FF0FF3038BD2D
:10383000207F0000407F0000607F000031F00043E7
:1038400010B51BD00F4AA1F58014944210D901F194
:10385000FF410C4A01F5E001914209D9B3F5801FFF
:1038600008D3094A934207D1B0FA80F0400910BD4D
:10387000042010BD032010BD002010BD0028E6D19B
:10388000022010BDFFFFDF7F0000F07F38B5064C3F
:103890000023054608462360FCF7F2FF431C02D1D3
:1038A000236803B12B6038BD84040010F0B50A789A
:1038B000441E5E2A13BF4B1C8B1C4A78002108BF94
:1038C000012100F1FF0504F8011FAC42FBD10AB948
:1038D000581EF0BDC1F10104E7B2875419785E1C8F
:1038E0002D2905D05D290ED079B10A463346F3E77C
:1038F0005D785D2DF9D09542F7DB02330132AA42A3
:103900008754FBDBEAE73046F0BD1846F0BD0029DE
:103910000CBF022200224FF4806300F001B80000C7
:103920002DE9F0411D463D4B04461E680F4690466A
:1039300026B1B36913B93046FEF79AFA384B9C4268
:1039400001D1746808E0374B9C4201D1B46803E0B0
:10395000354B9C4208BFF468B8F1020F5AD8002DCD
:1039600058DB30462146FEF7D3F900236360A3619C
:10397000A3891B0603D530462169FEF7DBFCA3892A
:10398000B8F1020F23F08303A38112D037BB002DBF
:1039900008BF4FF480652846FEF79AFC0746C8B971
:1039A0004FF48060FEF794FC074688B94FF0FF3073
:1039B00000E00020A38943F00203A3810023A36059
:1039C00004F147032360236101236361BDE8F081B3
:1039D0004FF48065A38943F08003A381B8F1010F00
:1039E00001BFA38943F00103A3816B4208BFA36118
:1039F0000E4BB362A389276003F0080080B22761F1
:103A0000656148B113F0030F18BF0025A5600020C1
:103A1000BDE8F0814FF0FF30BDE8F08134010010C7
:103A2000207F0000407F0000607F0000F11D00004B
:103A3000004870470000C07F0EB400B54FF402711B
:103A40009CB0ADF814106FF00041049107914FF64F
:103A5000FF711DABADF81610084953F8042B029006
:103A60000690086802A9019302F078FF029B0022E9
:103A70001A701CB05DF804EB03B0704734010010FD
:103A80000EB430B59CB01FAC4FF4017254F8045B17
:103A9000ADF814200290069000F06BF80B4B0390E9
:103AA0000B9300230F9314934FF6FF73ADF816306A
:103AB000074B079002A918682A462346019403F091
:103AC00099F81CB0BDE8304003B07047F73A0000E9
:103AD0003401001010B50C46B1F90E1003F0D8F9FE
:103AE0000028ABBF636DA3891B1823F48053ACBFC0
:103AF0006365A38110BD002070472DE9F0411D468C
:103B00008B890746DB050C46164605D5B1F90E1024
:103B10000022022302F072FAA389384623F480536C
:103B2000A381B4F90E1032462B46BDE8F04101F0F6
:103B300027B810B50C46B1F90E1002F05FFA431C1D
:103B4000A38915BF606523F4805343F48053A38198
:103B500018BFA38110BDB1F90E1001F08FB810F895
:103B6000012B11F8013B012A28BF9A42F7D0D01A45
:103B70007047034613F8012B002AFBD1181A0138AD
:103B8000704770B5A2B1451E01396B7811F8014F2D
:103B90006E1CA34206D16FF00104641B1444E04282
:103BA00002D11C46181B70BD3546002BEDD1F8E73D
:103BB000104670BD30B5036811F8014B01334CB1AC
:103BC0001A78A2F14105192D98BF2032A242F3D0F4
:103BD000002030BD0360012030BD2DE9F0410F46CB
:103BE000904602F005FD04460D46B8F1000F11D0D5
:103BF000C7F30A53C3F16B03002B0BDD1B0503F165
:103C00007F55002405F5401522462B4603F014FB92
:103C1000BDE8F08120462946BDE8F08100000000A3
:103C20002DE9F04F00239FB01A9382460B46039173
:103C300015924FF000084FF000091993199B1A785C
:103C40000D2A05D8092A13D2002A00F0B78111E005
:103C50002B2A06D02D2A02D0202A0BD108E00122DF
:103C600000E0002209925A1C19925B7823B9A5E161
:103C70000133E2E700230993199C2378302B5CD1B0
:103C80006378582B01D0782B4CD11AAB0093099B49
:103C90005046019319A9AE4A1BAB01F0DAFE10F0B1
:103CA0000706054600F0A585062E05D10134002340
:103CB0001994099300F09DBD1A9A3AB11CA83521B8
:103CC00002F083FD50461A9902F0FAF91B9A062E6B
:103CD00021D8DFE806F0040D08171C0D04004FF092
:103CE0000009C84617E0DDF87080DDF8749012E036
:103CF0001D9B02F2334223F48013DDF8708043EA07
:103D0000025908E0DFF84C924FF0000803E06FF032
:103D100000494FF0FF38290740F16B8549F0004911
:103D200000F067BD199B5A1C19925B78302BF9D0B3
:103D3000002B00F05E85012300E000230026B3463F
:103D400035460493199B0793199C2778A7F13003F4
:103D5000DAB2092A0CD8082D4FF00A0204F1010446
:103D6000D4BF02FB0B3B02FB063601351994EBE78F
:103D7000504602F03FF901685046059102F03AF9C9
:103D80000068FFF7F6FE059902462046FFF7F9FEA8
:103D900028B100203B462C460246074657E00590D6
:103DA000504602F027F90068FFF7E3FE199B0599DA
:103DB0001A1819921B5C002D41D12846302B05D1D1
:103DC000199B01305A1C19925B78F7E7A3F1310275
:103DD000082A42D8199A0792024600200446303B2E
:103DE00000F1010125D00A4421460719B94211D03A
:103DF000013101F1FF3EBEF1080F04DC4FF00A0E65
:103E00000EFB0BFBF2E71029DCBF4FF00A0E0EFB96
:103E100006F6EBE72044082800F1010403DC0A2140
:103E200001FB0B3B04E0102CDCBF0A2101FB063632
:103E30000021199B581C19905B78084602E02C461B
:103E400008460A46A3F130010929C8D90127652B84
:103E500001D0452B64D16CB904E0652B40F0D784C8
:103E60000022012728B9049B002B00F0A7800446FC
:103E700000E00024199B039301331993039B5B78A3
:103E80002B2B07D02D2B02D04FF0000C09E04FF068
:103E9000010C01E04FF0000C039B02331993039BCC
:103EA0009B78A3F13001092938D81946302904D16B
:103EB000199B591C19915978F8E7A1F1310EBEF1FF
:103EC000080F0B462CD8A1F130030593199B0693DC
:103ED000199B03F1010ECDF864E05B78A3F130018A
:103EE000092908D805994FF00A0E0EFB0131A1F1FE
:103EF00030030593ECE70699C1EB0E0EBEF1080FF7
:103F000044F61F6E04DC05997145A8BF714600E0B8
:103F10007146BCF1000F04D0494202E003991991A7
:103F20000021002C54D1002840F06384049A002A18
:103F300040F05F84002F41D14E2B20D002DC492B72
:103F40000AD03BE0692B07D06E2B18D036E000BFBB
:103F5000388000000000F07F19A8AA49FFF72AFE68
:103F600060B3199B19A8013BA7491993FFF722FEDB
:103F700010B9199B01331993DFF8A4921AE019A81C
:103F8000A249FFF717FEC8B1199B1B78282B0FD148
:103F900019A89F491CAA01F093FF052808D11D9B71
:103FA000DDF8708043F0FF4949F4E00900F021BCDE
:103FB000DFF870924FF0000800F01BBC039B1993D0
:103FC000159B002B00F020840023099300F013BC04
:103FD0008B1A06932B46002D08BF23465846102CFB
:103FE00025460393A8BF102503F0B0F8092D80469D
:103FF000894613DD874B03EBC50353E9122303F016
:104000001BF980463046894603F0A0F802460B466D
:104010004046494602F05EFF804689460F2C36DC5A
:10402000069B002B00F0E58324DD162B07DC794A84
:1040300002EBC302D2E900014B46424615E0069A64
:10404000C4F125039A4222DC724DC4F10F0405EB42
:10405000C403D3E9000142464B4603F0EDF8069B4A
:104060001C1B05EBC405D5E9002303F0E5F88046E9
:104070008946BEE3069B13F1160F08DB654A4046EE
:10408000A2EBC30249460CCA03F000FAEFE7069B15
:10409000651B1D44002D58DD15F00F020AD05D4B45
:1040A00003EBC203D3E9000142464B4603F0C4F8D8
:1040B0008046894635F00F0500F0BA80B5F59A7F45
:1040C0000FDD4FF0000BCDF80CB0CDF81CB0CDF8E3
:1040D00014B02223CAF80030DFF844914FF00008F2
:1040E00083E14946DFF8409140464E462D110027B6
:1040F000012D0ADDEA0703D5D9E9002303F09CF876
:1041000001376D1009F10809F2E78046A1F15479F1
:1041100006EBC7064246D6E900014B4603F08CF891
:1041200021F0004389460A461B0D3B491B058B4283
:104130008046C6D8A1F580118B4286BFDFF8EC908F
:104140004FF0FF3802F1547972E071D06D4215F0F2
:104150000F020AD02F4B404603EBC2034946D3E976
:10416000002303F093F9804689462D1160D01F2D5E
:1041700008DD4FF0000BCDF80CB0CDF81CB0CDF839
:1041800014B02BE14046494615F0100F0CBF002338
:104190006A23224E0493002D08DDEB0703D5D6E9F0
:1041A000002303F049F86D100836F4E7049B8046BD
:1041B0008946EBB1C1F30A53C3F16B03002B0A46E6
:1041C00016DD1F2B0EDD342BDEBF203B4FF0FF3101
:1041D00001FA03F34FF00008CCBF4FF05C7903EA1B
:1041E000020905E04FF0FF3202FA03F303EA000888
:1041F000404649460022002303F086FA0028B8D141
:1042000018E000BF9E7F000050810000A67F0000E4
:10421000F87F0000688100000000A07C1080000092
:104220000000F07F0000F8FF30820000FFFFEF7F0A
:1042300000230493CDF800B050460799039A234613
:1042400001F093FF079000283FF43BAF069A069BCE
:10425000002AC3F100034FF0000BA8BF00230E9308
:10426000CDF80CB0079B5046596801F0F4FE05905C
:1042700000283FF42EAF079B0C301A69079B0232CF
:1042800003F10C019200FEF741F81BAB00931CAB4D
:104290000193504642464B46CDE90A8902F01BFA8B
:1042A0001A9000283FF415AF5046012101F0EAFFB3
:1042B000039000283FF40DAF069B049923EAE377AF
:1042C0001B9B1C9C002BAABF0E9AFA1AD618A3EBB4
:1042D000010323446FF47F71ACBF3A460E9E8B42BC
:1042E000C4F1360480F28680C91A1F29A4EB0104A8
:1042F000C8BFB3494FF00100D5BF00FA01F3C91A96
:10430000149300FA01F3D9BF00230F930F93149075
:104310003519049BB54214441C442B46A8BF3346B0
:10432000A342A8BF2346002BC2BFED1AE41AF61A17
:104330000E9B002B63D1002D7BDC002F40F083808F
:10434000002C00F38A80002E00F3918050461A99C9
:10435000059A02F0EEF8834600283FF4BAAEC3682F
:104360000024C4600399089302F0C7F8A04280F2C9
:104370008D80089B002B40F01582B8F1000F40F0B3
:104380001182C9F31303002B40F00C8229F0004383
:104390001B0D1B05B3F1D66F40F20482DBF814301D
:1043A000002B6ED059460122504602F053F8039973
:1043B000834602F0A2F8002840F3F48129F000437C
:1043C000049A1B0D1B05002A00F08F80B3F1D66FF5
:1043D00000F38B80B3F15C7F00F3E68122234FF082
:1043E00000084FF00009CAF80030079B002B40F08E
:1043F000EC81FEE100230F930123149388E71A4612
:104400005046039901F0D8FF0390034600283FF47B
:1044100060AE504619461A9A01F03DFF08900028F8
:104420003FF457AE50461A9901F04AFE089B1A9382
:1044300081E750461A992A4602F00CF81A90002893
:104440007FF47BAF45E6504605993A4601F0B4FF4C
:10445000059000287FF474AF3BE65046059922464C
:1044600001F0F8FF059000287FF46DAF31E650466B
:104470000399324601F0EEFF039000287FF466AF07
:1044800027E6DBF81030012B8CDC8BE162D1089A37
:10449000C9F3130322B34B494A468B422ED1049BE6
:1044A000414663B1484B1340B3F1D46F07D81B0D9D
:1044B000C3F16B034FF0FF3000FA03F301E04FF05C
:1044C000FF3399421AD1414B9A4202D101313FF454
:1044D00000AE3D4B4FF00008134003F5801961E139
:1044E00063B9B8F1000F09D168E7A3F580136FEA4B
:1044F00013594FF0FF386FEA095953E10F9B13B17D
:1045000013EA090F02E0149B13EA080F00F04A8136
:10451000089B40464946049A53B1FFF75EFB0246AA
:104520000B46DDE90A0102F0D5FC8046894639E1F7
:10453000FFF753FB02460B46DDE90A0102F0C8FC17
:10454000002200238046894603F0DEF800287FF42D
:1045500045AF27E15846039902F00FF900224FF0CA
:10456000804306460F4603F0E3F800283FD0089B3F
:1045700013B10026164F10E0B8F1000F03D1C9F3B4
:1045800013033BB90BE0B8F1010F03D1B9F1000FF0
:104590003FF424AF0F4F002600240D4D3CE0304681
:1045A000394600220A4B03F0B9F8B8B9304639460B
:1045B0000022094B02F040FE04460D4610E000BF09
:1045C000E3FBFFFFFFFF0F000000F07FFFFFEF7F27
:1045D0000000F03F0000F0BF0000E03F089C9A4D53
:1045E00005F1004316941793DDE9166714E0964B26
:1045F00030463946002202F01FFE089B04460D4655
:1046000023B901F100431090119303E002460B46D9
:10461000CDE91023DDE9106729F0004C4FEA1C5C5E
:104620008A4B4FEA0C5C9C4531D1DDE90A23A9F1A4
:10463000547940464946CDF83CC0CDE90C2301F001
:10464000D7FF02460B463046394602F0F5FD0246DA
:104650000B464046494602F03DFC21F000431B0D4D
:104660007B4A1B0593428046DDF83CC00CD9794B50
:104670000D9A9A4203D10C9B01333FF42AADDFF827
:10468000D4914FF0FF387CE001F1547944E0049B71
:1046900063B3BCF1D46F29D863A3D3E900232046C8
:1046A0002946CDF83CC003F043F8DDF83CC0C8B162
:1046B0002946204603F082F8002808BF012002F0B6
:1046C00045FD089B04460D46DDF83CC023B901F1C9
:1046D00000431290139303E002460B46CDE91223E8
:1046E000DDE9126707F1D663CCEB0307DDE90A01C8
:1046F000CDF83CC001F07CFF02460B4630463946FF
:1047000002F09AFD02460B46DDE90A0102F0E2FBE7
:1047100080468946DDF83CC0049B4E468BBB29F0A1
:1047200000431B0D1B059C452BD12946204603F059
:104730001DF802F01BFD0B4602462946204602F0FA
:10474000C7FB089B04460D462BB9B8F1000F02D1F8
:10475000C9F313067EB136A3D3E9002320462946C8
:1047600002F0DCFF88BB34A3D3E9002320462946AE
:1047700002F0F2FF04E032A3D3E9002302F0CEFFFF
:1047800018BB50461A9901F09BFC5046059901F060
:1047900097FC5046039901F093FC5046594601F0AE
:1047A0008FFC5FE5049B83B12B4B40460D930023A8
:1047B0000C934946DDE90C2302F03EFD8046894614
:1047C00019B910B92223CAF8003050461A9901F0DD
:1047D00077FC5046059901F073FC5046039901F0AF
:1047E0006FFC5046079901F06BFC5046594601F0AA
:1047F00067FC159B13B1199B159A1360099B1BB19C
:10480000424609F1004307E042464B4604E00024DB
:1048100022460127FFF71DBB104619461FB0BDE811
:10482000F08F00BFAFF300800000C0FFFFFFDF414B
:104830009535A094FFFFDF3F35E5AF350000E03F41
:104840009535A094FFFFCF3F0000E03F0000E07FE0
:10485000FFFF9F7CFFFFEF7F00005039AFF3008028
:104860002DE9F0470F46404CD4F800903D4615F82E
:1048700001EB09EB0E04667806F0080404F0FF066D
:104880000CB12F46F2E774462D2C03D1BD1C7C7869
:10489000012603E02B2C04BF7C78BD1C13B1102B28
:1048A0000AD15AE0302C56D12C7804F0DF04582C71
:1048B0004CD16C7810230235002E14BF4FF0004805
:1048C0006FF00048B8FBF3FA0027BE4603FB1A88D6
:1048D00009EB040C9CF801C01CF0040F01D0303C23
:1048E0000BE01CF0030C1BD0BCF1010F0CBF4FF010
:1048F000370C4FF0570CCCEB04049C4210DAB7F1A4
:10490000FF3F0AD0D64506D801D1444503DC03FB5E
:104910000E4E012701E04FF0FF3715F8014BD7E7A6
:104920007C1C73460AD1002E4FF0220114BF4FF0B9
:1049300000436FF0004301602AB911E00EB1CEF1DF
:1049400000036AB107B1691E116009E03024002B31
:10495000B2D10823B0E70A23AEE7302CACD1A3E7ED
:104960001846BDE8F08700BF380100102DE9F04778
:104970000E463B4CD4F80090354615F801EB09EB98
:104980000E04677807F0080404F0FF070CB12E4608
:10499000F2E774462D2C03D1B51C7478012703E08F
:1049A0002B2C04BF7478B51C13B1102B0AD151E025
:1049B000302C4DD12C7804F0DF04582C43D16C7886
:1049C000102302354FF0FF38B8FBF3F803FB08FA69
:1049D00000266FEA0A0AB64609EB040C9CF801C0EF
:1049E0001CF0040F01D0303C0BE01CF0030C1BD07A
:1049F000BCF1010F0CBF4FF0370C4FF0570CCCEB54
:104A000004049C4210DAB6F1FF3F0AD0C64506D82E
:104A100001D1544503DC03FB0E4E012601E04FF0AB
:104A2000FF3615F8014BD7E7741C734603D12223D8
:104A30000360334602E00FB1CEF100036AB106B164
:104A4000691E116009E03024002BBBD10823B9E7AF
:104A50000A23B7E7302CB5D1ACE71846BDE8F0879C
:104A6000380100102DE9F0410C46496B04F1440374
:104A700099421AD14FF48061FDF7A0FC18B94FF0AC
:104A8000FF30BDE8F0814FF48063A36394F84630B3
:104A9000606380F8FF3394F8453000F2FD304370D6
:104AA00094F844300370206012E0A66B77003A4619
:104AB00001F0D5FE05460028E1D000EB060840468F
:104AC00029463246FDF722FCC4F800806563A763DF
:104AD0000020BDE8F081000070B50D461446064682
:104AE00018B183690BB9FDF7C3F9224B9C4201D180
:104AF000746808E0204B9C4201D1B46803E01F4B6E
:104B00009C4208BFF468A369A360A3891A0709D56A
:104B100023693BB123682069EDB2181A6369984292
:104B20000FDB08E03046214600F03CF80028F1D0C9
:104B30004FF0FF3070BD30462146FDF7E9F8002800
:104B4000F6D1A3680130013BA36023685A1C2260A0
:104B50001D706369984204D0A389DB0707D50A2D2D
:104B600005D130462146FDF7D3F80028E0D128468C
:104B700070BD00BF207F0000407F0000607F00000C
:104B800038B5074C054600202060084611461A46F5
:104B9000FBF7DEFD431C02D1236803B12B6038BD57
:104BA00084040010314B70B51D6806460C4625B1D3
:104BB000AB6913B92846FDF75BF92D4B9C4201D137
:104BC0006C6808E02B4B9C4201D1AC6803E02A4B97
:104BD0009C4208BFEC68A3899AB211071DD4D50680
:104BE00002D40922326038E0500712D5616B41B11E
:104BF00004F14403994202D03046FDF79BFB0023A9
:104C00006363A38923F02403A381002363602369E2
:104C10002360A38943F00803A38123694BB9A389C7
:104C200003F42073B3F5007F03D030462146FDF72F
:104C300003FBA38913F0010205D00022A260626980
:104C40005242A26103E0990758BF6269A2602269DB
:104C50004AB903F0800080B230B143F04003A38131
:104C60004FF0FF3070BD002070BD00BF3401001058
:104C7000207F0000407F0000607F000038B5064CB8
:104C80000023054608462360FBF74CFD431C02D178
:104C9000236803B12B6038BD840400102DE9F74F61
:104CA00003690C698046A3427EDB013C01F11407D5
:104CB0004FEA840E00F1140606EB0E0357F8245059
:104CC000019356F824300135B3FBF5F507EB0E09D7
:104CD000BDB34FF0000A3846B446D34650F8043B03
:104CE0009AB21B0C02FB05A26B4303EB124392B278
:104CF000C2EB0B0BBCF800204FEA134A5A441FFAD0
:104D000083FBDCF800304845CBEB134303EB224335
:104D100092B242EA03424FEA234B4CF8042BDDD90E
:104D200056F80E306BB9019B043BB3421A4602D8C9
:104D3000C8F8104005E01268043B002AF8D1013C95
:104D4000F3E7404601F0D9FB00282BDB3046013564
:104D50004FF0000E57F8042B036891B2C1EB0E0E12
:104D6000120C99B27144C2EB134303EB214389B295
:104D70004FEA234E4F4541EA034340F8043BE9D94B
:104D800056F8242006EB840362B9043BB3421A466A
:104D900002D8C8F8104005E01268043B002AF8D198
:104DA000013CF3E7284600E0002003B0BDE8F08FA7
:104DB0002DE9F04F456A95B08246219CCDE902234A
:104DC00045B91020FDF784FACAF8240045608560D3
:104DD0000560C560DAF82430196859B15A680123B2
:104DE00093404A608B60504601F06AF9DAF824304B
:104DF00000221A60039BA24A002BBDBF012323603F
:104E0000039B0023BCBF23F000430393039FA8BF71
:104E1000236027F000431B0D1B0593421DD142F276
:104E20000F73209A1360029B43B9964A964BC7F3BF
:104E30001300002814BF1846104600E09248229B39
:104E4000002B00F06985C37813B100F1080300E07E
:104E5000C31C229A136000F05FBDDDE90245002209
:104E600020462946002302F04FFC804658B1209A84
:104E700001231360229B002B00F03C8583481860BF
:104E8000013800F049BD13AB009312AB01935046BB
:104E900022462B4601F01FFCC7F30A5607905EB16D
:104EA000C5F3130343F07F51204641F44011A6F2AD
:104EB000FF36CDF844801DE0139B129E1E446FF414
:104EC00082639E42A1BF029A06F2124322FA03F0C5
:104ED0006F4BB7BF6F4B9B1B029A9B1BAABF9F4098
:104EE00002FA03F0384302F031F90123A1F1F8711D
:104EF000013E11930022684B01F0EAFF5AA3D3E967
:104F0000002302F099F95AA3D3E9002301F0E2FF4C
:104F1000044630460D4602F029F957A3D3E9002391
:104F200002F08AF902460B462046294601F0D2FFDC
:104F300004460D4602F01AFC29468346002220460C
:104F4000002302F0EBFB58B1584602F00FF902467D
:104F50000B462046294602F0D7FB08B90BF1FF3B70
:104F6000BBF1160F0DD84D4B03EBCB03D3E900017A
:104F7000DDE9022302F0F0FB30B10BF1FF3B00232F
:104F800000E00123109300E01090129B9E1B731E03
:104F90000A9345BF5B420993002300234CBF0A9349
:104FA0000993BBF1000F07DB0A9BCDF834B05B44DB
:104FB0000A9300230B9308E0099BCBEB03030993AF
:104FC000CBF100030B9300230D931E9B092B29D8D3
:104FD000052BC4BF043B1E931E9BC8BF0025A3F135
:104FE0000203D8BF0125032B21D8DFE803F0020E0E
:104FF0000410002300E001230C931F9B002B20DCF6
:105000000123069305931A4619E0002300E00123CB
:105010000C931F9B5B4406930133012B0593B8BF90
:10502000012311E0012500231E930C9501E00123CB
:105030000C934FF0FF3306930593002212231F9227
:1050400002E01F9B06930593DAF824400022626079
:10505000042101F114029A4222D862684900013207
:105060006260F6E7AFF3008061436F63A787D23FCA
:10507000B3C8608B288AC63FFB799F501344D33F47
:105080000000F07F4D81000056810000F37F00009A
:105090000EFCFFFFEEFBFFFF0000F83F6881000001
:1050A0005046616800F0D7FFDAF8243020601B68B2
:1050B0000893059B0E2B00F24781002D00F04481E0
:1050C000DDE90223BBF1000FCDE90E2331DDB14A4A
:1050D0000BF00F034FEA2B1602EBC303F006D3E9E4
:1050E00000450CD5DDE90E01AB4B06F00F06D3E908
:1050F000082302F0CBF90327CDE9020100E00227E3
:10510000DFF8948276B1F10708D5D8E9002320466C
:10511000294602F091F804460D460137761008F151
:105120000808EFE7DDE9020122462B4602F0AEF95E
:105130001BE0CBF10004DCB1DDE90E01954B04F07E
:105140000F0203EBC203D3E9002302F075F8924D7E
:10515000241102274CB1E20704D5D5E90023013719
:1051600002F06AF864100835F4E7CDE9020100E0C6
:105170000227109BDBB1DDE90245002220462946CB
:10518000864B02F0CBFA90B1059B83B1069B002BB6
:1051900040F3D680294620460022814B02F04CF88D
:1051A0000BF1FF36CDE902010137069D01E05E46B5
:1051B000059D3846DDE9028901F0D8FF42464B469D
:1051C00002F03AF8774B002201F084FECDE90201AB
:1051D000039BA3F150740394CDB940464946002285
:1051E000714B01F075FE029A23468046894602F013
:1051F000B3FA002840F0408240464946029A04F142
:10520000004302F08BFA002840F0308298E0614BB6
:105210000C996A1E03EBC203002947D0D3E900238F
:105220000020624902F032F9DDE9022301F050FE6C
:10523000CDE90201089C4946404602F097FA07462C
:1052400001F094FF02460B464046494601F040FEFD
:10525000DDE90223303704F8017B8046894602F0FD
:105260005DFA002840F0378342464B4600204B4908
:1052700001F02EFEDDE9022302F050FA002840F092
:10528000D080089BE31AAB425ADADDE90201002222
:10529000434B01F0D1FF0022CDE90201404B4046D3
:1052A000494601F0C9FF80468946C4E7D3E90001B9
:1052B000DDE9022301F0C0FF089BCDE902015C1982
:1052C0001D464946404602F051FA074601F04EFF9E
:1052D00002460B464046494601F0FAFD303705F8D4
:1052E000017BA5428046894623D100222F4BDDE970
:1052F000020101F0EFFD02460B464046494602F02E
:105300002BFA002840F08D80DDE902230020274998
:1053100001F0DEFD02460B464046494602F0FEF92A
:1053200070B114F8013C621E302B40F0D482144658
:10533000F7E700221A4B01F07FFF80468946C0E75D
:10534000DDE90E23CDE90223139B002BC0F28A80F6
:10535000BBF10E0F00F386800E4B03EBCB03D3E9BA
:1053600000671F9B002B23DA059B002B20DC40F0FD
:105370007C81304600220C4B394601F05DFFDDE9AF
:10538000022302F0DFF9059D2E46002840F06F81D0
:1053900074E100BF68810000308200000000F03F2F
:1053A0000000244000001C40000014400000E03FCA
:1053B000089CDDE9028932463B464046494602F0F8
:1053C00065F802F0D3F9054601F0D0FE32463B46BF
:1053D00001F032FF0B4602464946404601F078FD97
:1053E00005F1300E089B04F801EBC3EB040E059B9E
:1053F0009E452AD102460B4601F06CFD32463B46E3
:105400008046894602F0A8F970B9404649463246BE
:105410003B4602F079F9002800F05E82EB0703D4E6
:105420005AE2B34600E01C4614F8012C631E392AE8
:1054300007D1089A9342F6D13023137013460BF12B
:10544000010B1A7801321A7046E20022A34B01F0D8
:10545000F3FE002200238046894602F055F9002819
:10546000A9D039E20C9A002A32D01E9A012A0ADC0D
:10547000119A12B103F2334302E0129BC3F13603D7
:105480000B9D099C18E0059B5D1E0B9BAB42B7BFB3
:105490000B9B5D1BEA1A0D9BBEBF0B959B180D93D2
:1054A000059BB8BF0025002BB9BF099B059A099C35
:1054B000059BBCBF9C1A0023099A50461A440992C6
:1054C0000A9A01211A440A9200F0DCFE064602E024
:1054D0000B9D099C0C9E64B10A9B002B09DDA34225
:1054E000A8BF2346099AE41AD21A09920A9AD31A33
:1054F0000A930B9B002B20DD0C9BC3B1002D10DD0C
:1055000031462A46504600F057FF0646079A314674
:10551000504600F0C0FE07460799504600F0D0FD07
:1055200007970B9B5A1B08D05046079902E050463C
:1055300007990B9A00F040FF07905046012100F0B8
:10554000A1FE0D9B0546002B0ADD29461A46504652
:1055500000F032FF1E9B0546012B04DD00271BE0F7
:105560001E9B012B13DC029B8BB9039BC3F313031C
:105570007BB9039B23F000473F0D3F0557B1099BC3
:105580000127013309930A9B01330A9302E00027A4
:1055900000E0029F0D9B43B12B6905EB8303186963
:1055A00000F023FEC0F1200000E001200A9B184417
:1055B00010F01F0008D0C0F12003042B02DDC0F161
:1055C0001C0002E008D018461C30099B0444034428
:1055D00009930A9B03440A93099B002B05DD50465F
:1055E00007991A4600F036FF07900A9B002B05DD4D
:1055F000294650461A4600F02DFF0546109BEBB198
:105600000798294600F079FF002817DA0023504652
:1056100007990A2200F06BFD0C9B0BF1FF3B0790F2
:10562000002B00F06B813146002350460A2200F027
:105630005EFD069B0646002B33DC68E1059B002BD4
:1056400026DC1E9B022B23DD059B0693069B73B96C
:1056500029460522504600F04AFD0546079829468E
:1056600000F04BFF002809DC01E000252E461F9BBF
:10567000089C6FEA030B08E0B3462E46089B089A85
:105680005C1C312313700BF1010BB14600260FE1B6
:105690000C9B23B9059B0693089F079CC9E0059BBB
:1056A0000693002C05DD31465046224600F0D2FE1E
:1056B0000646AFB17168504600F0CDFC0446326931
:1056C00006F10C01023292000C30FCF71FFE50462E
:1056D0002146012200F0BEFE814602E00000244087
:1056E000B146089F079C29462046FFF7D7FA314666
:1056F000099000F13008204600F0FFFE4A46059070
:105700002946504600F015FFC26803463AB91946CB
:105710002046079300F0F1FE079B024600E00122BD
:1057200050461946079200F0CBFC079A92B91E9B8F
:1057300083B9029B03F0010363B9B8F1390F3B460B
:1057400007943ED0059B7C1C002BC4BF099B03F132
:1057500031083DE0059B002B04DA002AC44607947B
:1057600008DC21E024D11E9B13BB029B03F0010344
:10577000F3B9F2E72146012250460597CDF808809B
:1057800000F068FE2946079000F0B7FE0028DDF81B
:1057900008C0059B03DC07D118F0010F04D0B8F155
:1057A000390F0ED008F1010C7C1C87F800C07FE097
:1057B000002A07F101020EDDB8F1390F3B460794CC
:1057C00003D1392201371A7057E0144608F1010855
:1057D00087F800806CE0089B1746D31A02F8018C0A
:1057E000069A93423AD021460A220023504600F0FE
:1057F0007EFC4E450446314650464FF00A024FF0BB
:10580000000304D100F073FC064681466BE700F00C
:105810006EFC494606460A225046002300F067FC0B
:10582000814660E7214650460A22002300F05FFCD3
:10583000044620462946FFF731FA089B00F130085C
:1058400007F8018B069AFB1A9342EBDB089BB146E3
:10585000012AACBF9B1801331F46002621460122B6
:10586000504600F0F7FD2946079000F046FE00285C
:1058700003DC15D118F0010F12D03C4614F8013C9E
:10588000621E392B09D1089B9A4204D10BF1010BFE
:105890003123089A02E01446F0E70133137007E061
:1058A0003C4614F8013C621E302B01D11446F8E747
:1058B0005046294600F004FCB9F1000F0CD02EB17F
:1058C0004E4503D05046314600F0FAFB504649465B
:1058D00000F0F6FB00E0B3465046079900F0F0FBFD
:1058E0000023209A23700BF101031360229B1BB14C
:1058F0001C6001E00A480FE008980DE0069B002BB1
:105900003FF7CAAE1E9B022B3FF7A0AEC4E61E9B1C
:10591000022B3FF79BAEC4E615B0BDE8F08F00BF89
:10592000F27F0000AFF300800B7830B5722B0ED001
:10593000772B07D0612B0ED14FF4027401234FF463
:1059400084701AE04FF4C0640123082015E000249D
:105950002346042011E016230360002030BD622D91
:1059600010D0782D11D02B2D07D120F01C0023F062
:10597000030340F0100043F0020311F8015F002D13
:10598000EDD105E043F48033F7E743F40063F4E737
:105990002343136030BD000038B5074C0023054693
:1059A000084611462360FAF749FF431C02D12368D9
:1059B00003B12B6038BD00BF84040010F0B5066948
:1059C0004B11B34200F1140527DA11F01F0105EB6A
:1059D000860605EB830201D1294616E0141D55F811
:1059E00023202B46C1F1200ECA40B44209D22768B9
:1059F00007FA0EF73A4343F8042B54F8042BCA4035
:105A0000F3E71A6052B1043308E0B2420B4605D204
:105A100052F8043B41F8043BF7E72B465B1B9B1015
:105A2000036103B94361F0BDA0F13003092B01D834
:105A300020380AE0A0F16103052B01D8473804E0C3
:105A4000A0F14103052B02D82738C0B270470020CF
:105A500070472DE9F04F89B08A4691460493019032
:105A600000F0C8FA0368002618460293FEF781F892
:105A7000029B0090034413F8013C0593DAF80030D0
:105A80000233984613F8010B302801D10136F8E7AC
:105A9000FFF7CAFF0446E8B940460299009AFEF7AC
:105AA00070F8002837D1009B18F8030008EB0307B3
:105AB000FFF7BAFF88B33B4618789846302803F1C1
:105AC0000103F9D0FFF7B0FFB0FA80F53C466D094D
:105AD000012601E000252C46C3465F4638780BF1CD
